{
  "contractName": "AccountRent",
  "abi": [
    {
      "constant": true,
      "inputs": [
        {
          "name": "",
          "type": "uint256"
        }
      ],
      "name": "rentPool",
      "outputs": [
        {
          "name": "renterAddress",
          "type": "address"
        },
        {
          "name": "id",
          "type": "uint256"
        },
        {
          "name": "rentTime",
          "type": "uint256"
        },
        {
          "name": "beginTime",
          "type": "uint256"
        },
        {
          "name": "endTime",
          "type": "uint256"
        },
        {
          "name": "cost",
          "type": "uint256"
        },
        {
          "name": "state",
          "type": "uint8"
        }
      ],
      "payable": false,
      "stateMutability": "view",
      "type": "function"
    },
    {
      "constant": true,
      "inputs": [
        {
          "name": "",
          "type": "uint256"
        }
      ],
      "name": "accountPool",
      "outputs": [
        {
          "name": "ownerAddress",
          "type": "address"
        },
        {
          "name": "id",
          "type": "uint256"
        },
        {
          "name": "password",
          "type": "string"
        },
        {
          "name": "price",
          "type": "uint256"
        },
        {
          "name": "accountType",
          "type": "string"
        },
        {
          "name": "description",
          "type": "string"
        },
        {
          "name": "state",
          "type": "uint8"
        }
      ],
      "payable": false,
      "stateMutability": "view",
      "type": "function"
    },
    {
      "constant": true,
      "inputs": [
        {
          "name": "",
          "type": "uint256"
        }
      ],
      "name": "existAccount",
      "outputs": [
        {
          "name": "",
          "type": "bool"
        }
      ],
      "payable": false,
      "stateMutability": "view",
      "type": "function"
    },
    {
      "constant": true,
      "inputs": [
        {
          "name": "",
          "type": "uint256"
        }
      ],
      "name": "existRent",
      "outputs": [
        {
          "name": "",
          "type": "bool"
        }
      ],
      "payable": false,
      "stateMutability": "view",
      "type": "function"
    },
    {
      "anonymous": false,
      "inputs": [
        {
          "indexed": false,
          "name": "addr",
          "type": "address"
        },
        {
          "indexed": false,
          "name": "message",
          "type": "string"
        }
      ],
      "name": "notice",
      "type": "event"
    },
    {
      "constant": true,
      "inputs": [
        {
          "name": "_username",
          "type": "string"
        }
      ],
      "name": "getUserExist",
      "outputs": [
        {
          "name": "",
          "type": "bool"
        }
      ],
      "payable": false,
      "stateMutability": "view",
      "type": "function"
    },
    {
      "constant": true,
      "inputs": [
        {
          "name": "_username",
          "type": "string"
        }
      ],
      "name": "getUserAddress",
      "outputs": [
        {
          "name": "",
          "type": "address"
        }
      ],
      "payable": false,
      "stateMutability": "view",
      "type": "function"
    },
    {
      "constant": true,
      "inputs": [
        {
          "name": "_username",
          "type": "string"
        }
      ],
      "name": "getUserPassword",
      "outputs": [
        {
          "name": "",
          "type": "string"
        }
      ],
      "payable": false,
      "stateMutability": "view",
      "type": "function"
    },
    {
      "constant": false,
      "inputs": [
        {
          "name": "_username",
          "type": "string"
        },
        {
          "name": "_password",
          "type": "string"
        },
        {
          "name": "_userAddress",
          "type": "address"
        }
      ],
      "name": "regist",
      "outputs": [],
      "payable": false,
      "stateMutability": "nonpayable",
      "type": "function"
    },
    {
      "constant": true,
      "inputs": [],
      "name": "getAccountList",
      "outputs": [
        {
          "name": "",
          "type": "uint256[]"
        }
      ],
      "payable": false,
      "stateMutability": "view",
      "type": "function"
    },
    {
      "constant": true,
      "inputs": [],
      "name": "getRentList",
      "outputs": [
        {
          "name": "",
          "type": "uint256[]"
        }
      ],
      "payable": false,
      "stateMutability": "view",
      "type": "function"
    },
    {
      "constant": false,
      "inputs": [
        {
          "name": "_id",
          "type": "uint256"
        },
        {
          "name": "_rentTime",
          "type": "uint256"
        }
      ],
      "name": "createRent",
      "outputs": [],
      "payable": true,
      "stateMutability": "payable",
      "type": "function"
    },
    {
      "constant": false,
      "inputs": [
        {
          "name": "_id",
          "type": "uint256"
        }
      ],
      "name": "confirmRent",
      "outputs": [
        {
          "name": "",
          "type": "string"
        }
      ],
      "payable": false,
      "stateMutability": "nonpayable",
      "type": "function"
    },
    {
      "constant": false,
      "inputs": [
        {
          "name": "_id",
          "type": "uint256"
        }
      ],
      "name": "refuseRent",
      "outputs": [],
      "payable": false,
      "stateMutability": "nonpayable",
      "type": "function"
    },
    {
      "constant": false,
      "inputs": [
        {
          "name": "_id",
          "type": "uint256"
        },
        {
          "name": "_password",
          "type": "string"
        }
      ],
      "name": "changePassword",
      "outputs": [],
      "payable": false,
      "stateMutability": "nonpayable",
      "type": "function"
    },
    {
      "constant": true,
      "inputs": [
        {
          "name": "_id",
          "type": "uint256"
        }
      ],
      "name": "getPassword",
      "outputs": [
        {
          "name": "",
          "type": "string"
        }
      ],
      "payable": false,
      "stateMutability": "view",
      "type": "function"
    },
    {
      "constant": false,
      "inputs": [
        {
          "name": "_id",
          "type": "uint256"
        }
      ],
      "name": "endRent",
      "outputs": [],
      "payable": false,
      "stateMutability": "nonpayable",
      "type": "function"
    },
    {
      "constant": false,
      "inputs": [
        {
          "name": "_id",
          "type": "uint256"
        },
        {
          "name": "_password",
          "type": "string"
        },
        {
          "name": "_price",
          "type": "uint256"
        },
        {
          "name": "_accountType",
          "type": "string"
        },
        {
          "name": "_description",
          "type": "string"
        }
      ],
      "name": "createAccount",
      "outputs": [],
      "payable": false,
      "stateMutability": "nonpayable",
      "type": "function"
    },
    {
      "constant": false,
      "inputs": [
        {
          "name": "_id",
          "type": "uint256"
        }
      ],
      "name": "removeAccount",
      "outputs": [],
      "payable": false,
      "stateMutability": "nonpayable",
      "type": "function"
    }
  ],
  "bytecode": "0x608060405234801561001057600080fd5b50612b95806100206000396000f3006080604052600436106100fc576000357c0100000000000000000000000000000000000000000000000000000000900463ffffffff16806301b4884b1461010157806304bef511146101a65780632843314e1461037a5780633d2d42f7146103e65780634985e85c1461046757806371ea9a8914610510578063766acd0c146105df578063797c53591461060c5780637d9796c6146106395780639f05434c146106df578063a00ee9461461074b578063a7a4dfd014610790578063c2d42ef2146107ba578063c593a82d146107e7578063c9ae6b01146108f0578063e0ba0999146109d2578063f38c6bb614610a45578063f879745b14610aeb575b600080fd5b34801561010d57600080fd5b5061012c60048036038101908080359060200190929190505050610b30565b604051808873ffffffffffffffffffffffffffffffffffffffff1673ffffffffffffffffffffffffffffffffffffffff16815260200187815260200186815260200185815260200184815260200183815260200182600281111561018c57fe5b60ff16815260200197505050505050505060405180910390f35b3480156101b257600080fd5b506101d160048036038101908080359060200190929190505050610b9f565b604051808873ffffffffffffffffffffffffffffffffffffffff1673ffffffffffffffffffffffffffffffffffffffff16815260200187815260200180602001868152602001806020018060200185600181111561022b57fe5b60ff168152602001848103845289818151815260200191508051906020019080838360005b8381101561026b578082015181840152602081019050610250565b50505050905090810190601f1680156102985780820380516001836020036101000a031916815260200191505b50848103835287818151815260200191508051906020019080838360005b838110156102d15780820151818401526020810190506102b6565b50505050905090810190601f1680156102fe5780820380516001836020036101000a031916815260200191505b50848103825286818151815260200191508051906020019080838360005b8381101561033757808201518184015260208101905061031c565b50505050905090810190601f1680156103645780820380516001836020036101000a031916815260200191505b509a505050505050505050505060405180910390f35b34801561038657600080fd5b5061038f610dd6565b6040518080602001828103825283818151815260200191508051906020019060200280838360005b838110156103d25780820151818401526020810190506103b7565b505050509050019250505060405180910390f35b3480156103f257600080fd5b5061044d600480360381019080803590602001908201803590602001908080601f0160208091040260200160405190810160405280939291908181526020018383808284378201915050505050509192919290505050610e2e565b604051808215151515815260200191505060405180910390f35b34801561047357600080fd5b506104ce600480360381019080803590602001908201803590602001908080601f0160208091040260200160405190810160405280939291908181526020018383808284378201915050505050509192919290505050610eaf565b604051808273ffffffffffffffffffffffffffffffffffffffff1673ffffffffffffffffffffffffffffffffffffffff16815260200191505060405180910390f35b34801561051c57600080fd5b506105dd600480360381019080803590602001908201803590602001908080601f0160208091040260200160405190810160405280939291908181526020018383808284378201915050505050509192919290803590602001908201803590602001908080601f0160208091040260200160405190810160405280939291908181526020018383808284378201915050505050509192919290803573ffffffffffffffffffffffffffffffffffffffff169060200190929190505050610f44565b005b3480156105eb57600080fd5b5061060a6004803603810190808035906020019092919050505061117d565b005b34801561061857600080fd5b50610637600480360381019080803590602001909291905050506115da565b005b34801561064557600080fd5b506106646004803603810190808035906020019092919050505061189a565b6040518080602001828103825283818151815260200191508051906020019080838360005b838110156106a4578082015181840152602081019050610689565b50505050905090810190601f1680156106d15780820380516001836020036101000a031916815260200191505b509250505060405180910390f35b3480156106eb57600080fd5b506106f4611c70565b6040518080602001828103825283818151815260200191508051906020019060200280838360005b8381101561073757808201518184015260208101905061071c565b505050509050019250505060405180910390f35b34801561075757600080fd5b5061077660048036038101908080359060200190929190505050611cc8565b604051808215151515815260200191505060405180910390f35b6107b86004803603810190808035906020019092919080359060200190929190505050611ce8565b005b3480156107c657600080fd5b506107e56004803603810190808035906020019092919050505061200c565b005b3480156107f357600080fd5b506108ee60048036038101908080359060200190929190803590602001908201803590602001908080601f016020809104026020016040519081016040528093929190818152602001838380828437820191505050505050919291929080359060200190929190803590602001908201803590602001908080601f0160208091040260200160405190810160405280939291908181526020018383808284378201915050505050509192919290803590602001908201803590602001908080601f0160208091040260200160405190810160405280939291908181526020018383808284378201915050505050509192919290505050612281565b005b3480156108fc57600080fd5b50610957600480360381019080803590602001908201803590602001908080601f0160208091040260200160405190810160405280939291908181526020018383808284378201915050505050509192919290505050612460565b6040518080602001828103825283818151815260200191508051906020019080838360005b8381101561099757808201518184015260208101905061097c565b50505050905090810190601f1680156109c45780820380516001836020036101000a031916815260200191505b509250505060405180910390f35b3480156109de57600080fd5b50610a4360048036038101908080359060200190929190803590602001908201803590602001908080601f016020809104026020016040519081016040528093929190818152602001838380828437820191505050505050919291929050505061256d565b005b348015610a5157600080fd5b50610a7060048036038101908080359060200190929190505050612701565b6040518080602001828103825283818151815260200191508051906020019080838360005b83811015610ab0578082015181840152602081019050610a95565b50505050905090810190601f168015610add5780820380516001836020036101000a031916815260200191505b509250505060405180910390f35b348015610af757600080fd5b50610b166004803603810190808035906020019092919050505061291e565b604051808215151515815260200191505060405180910390f35b60076020528060005260406000206000915090508060000160009054906101000a900473ffffffffffffffffffffffffffffffffffffffff16908060010154908060020154908060030154908060040154908060050154908060060160009054906101000a900460ff16905087565b60046020528060005260406000206000915090508060000160009054906101000a900473ffffffffffffffffffffffffffffffffffffffff1690806001015490806002018054600181600116156101000203166002900480601f016020809104026020016040519081016040528092919081815260200182805460018160011615610100020316600290048015610c775780601f10610c4c57610100808354040283529160200191610c77565b820191906000526020600020905b815481529060010190602001808311610c5a57829003601f168201915b505050505090806003015490806004018054600181600116156101000203166002900480601f016020809104026020016040519081016040528092919081815260200182805460018160011615610100020316600290048015610d1b5780601f10610cf057610100808354040283529160200191610d1b565b820191906000526020600020905b815481529060010190602001808311610cfe57829003601f168201915b505050505090806005018054600181600116156101000203166002900480601f016020809104026020016040519081016040528092919081815260200182805460018160011615610100020316600290048015610db95780601f10610d8e57610100808354040283529160200191610db9565b820191906000526020600020905b815481529060010190602001808311610d9c57829003601f168201915b5050505050908060060160009054906101000a900460ff16905087565b60606005805480602002602001604051908101604052809291908181526020018280548015610e2457602002820191906000526020600020905b815481526020019060010190808311610e10575b5050505050905090565b600080826040518082805190602001908083835b602083101515610e675780518252602082019150602081019050602083039250610e42565b6001836020036101000a038019825116818451168082178552505050505050905001915050908152602001604051809103902060009054906101000a900460ff169050919050565b60006001826040518082805190602001908083835b602083101515610ee95780518252602082019150602081019050602083039250610ec4565b6001836020036101000a038019825116818451168082178552505050505050905001915050908152602001604051809103902060009054906101000a900473ffffffffffffffffffffffffffffffffffffffff169050919050565b600015156000846040518082805190602001908083835b602083101515610f805780518252602082019150602081019050602083039250610f5b565b6001836020036101000a038019825116818451168082178552505050505050905001915050908152602001604051809103902060009054906101000a900460ff16151514156111785760016000846040518082805190602001908083835b6020831015156110035780518252602082019150602081019050602083039250610fde565b6001836020036101000a038019825116818451168082178552505050505050905001915050908152602001604051809103902060006101000a81548160ff021916908315150217905550816002846040518082805190602001908083835b6020831015156110865780518252602082019150602081019050602083039250611061565b6001836020036101000a038019825116818451168082178552505050505050905001915050908152602001604051809103902090805190602001906110cc92919061293e565b50806001846040518082805190602001908083835b60208310151561110657805182526020820191506020810190506020830392506110e1565b6001836020036101000a038019825116818451168082178552505050505050905001915050908152602001604051809103902060006101000a81548173ffffffffffffffffffffffffffffffffffffffff021916908373ffffffffffffffffffffffffffffffffffffffff1602179055505b505050565b806003600082815260200190815260200160002060009054906101000a900460ff16801561120c57503373ffffffffffffffffffffffffffffffffffffffff166004600083815260200190815260200160002060000160009054906101000a900473ffffffffffffffffffffffffffffffffffffffff1673ffffffffffffffffffffffffffffffffffffffff16145b15156112f2576040517f08c379a00000000000000000000000000000000000000000000000000000000081526004018080602001828103825260648152602001807f506c6561736520636865636b207468652049442c206974207365656d7320746881526020017f61742074686973206163636f756e742069736e2774206578697374206f72207981526020017f6f7520617265206e6f7420746865206f776e6572206f6620746869732061636381526020017f6f756e740000000000000000000000000000000000000000000000000000000081525060800191505060405180910390fd5b600060028111156112ff57fe5b6007600084815260200190815260200160002060060160009054906101000a900460ff16600281111561132e57fe5b14151561133a57600080fd5b60028081111561134657fe5b6007600084815260200190815260200160002060060160009054906101000a900460ff16600281111561137557fe5b505060006004600084815260200190815260200160002060060160006101000a81548160ff021916908360018111156113aa57fe5b02179055506007600083815260200190815260200160002060000160009054906101000a900473ffffffffffffffffffffffffffffffffffffffff1673ffffffffffffffffffffffffffffffffffffffff166108fc60076000858152602001908152602001600020600501549081150290604051600060405180830381858888f19350505050158015611441573d6000803e3d6000fd5b5060076000838152602001908152602001600020600080820160006101000a81549073ffffffffffffffffffffffffffffffffffffffff0219169055600182016000905560028201600090556003820160009055600482016000905560058201600090556006820160006101000a81549060ff021916905550506006600083815260200190815260200160002060006101000a81549060ff02191690557fff9707690cfb78898f53d99d7ec9803862e46739e3e6af95284689f30c602ae46007600084815260200190815260200160002060000160009054906101000a900473ffffffffffffffffffffffffffffffffffffffff16604051808273ffffffffffffffffffffffffffffffffffffffff1673ffffffffffffffffffffffffffffffffffffffff16815260200180602001828103825260238152602001807f546865206f776e65722072656675736520796f75722072656e7420726571756581526020017f73740a00000000000000000000000000000000000000000000000000000000008152506040019250505060405180910390a15050565b6003600082815260200190815260200160002060009054906101000a900460ff16801561166857503373ffffffffffffffffffffffffffffffffffffffff166004600083815260200190815260200160002060000160009054906101000a900473ffffffffffffffffffffffffffffffffffffffff1673ffffffffffffffffffffffffffffffffffffffff16145b80156116e657506000600281111561167c57fe5b6007600083815260200190815260200160002060060160009054906101000a900460ff1660028111156116ab57fe5b14806116e5575060076000828152602001908152602001600020600201546007600083815260200190815260200160002060030154420310155b5b8061177b57506003600082815260200190815260200160002060009054906101000a900460ff16801561177a57503373ffffffffffffffffffffffffffffffffffffffff166007600083815260200190815260200160002060000160009054906101000a900473ffffffffffffffffffffffffffffffffffffffff1673ffffffffffffffffffffffffffffffffffffffff16145b5b151561178657600080fd5b60028081111561179257fe5b6007600083815260200190815260200160002060060160009054906101000a900460ff1660028111156117c157fe5b505060006004600083815260200190815260200160002060060160006101000a81548160ff021916908360018111156117f657fe5b021790555060076000828152602001908152602001600020600080820160006101000a81549073ffffffffffffffffffffffffffffffffffffffff0219169055600182016000905560028201600090556003820160009055600482016000905560058201600090556006820160006101000a81549060ff021916905550506006600082815260200190815260200160002060006101000a81549060ff021916905550565b6060816003600082815260200190815260200160002060009054906101000a900460ff16801561192b57503373ffffffffffffffffffffffffffffffffffffffff166004600083815260200190815260200160002060000160009054906101000a900473ffffffffffffffffffffffffffffffffffffffff1673ffffffffffffffffffffffffffffffffffffffff16145b1515611a11576040517f08c379a00000000000000000000000000000000000000000000000000000000081526004018080602001828103825260648152602001807f506c6561736520636865636b207468652049442c206974207365656d7320746881526020017f61742074686973206163636f756e742069736e2774206578697374206f72207981526020017f6f7520617265206e6f7420746865206f776e6572206f6620746869732061636381526020017f6f756e740000000000000000000000000000000000000000000000000000000081525060800191505060405180910390fd5b60006002811115611a1e57fe5b6007600085815260200190815260200160002060060160009054906101000a900460ff166002811115611a4d57fe5b141515611a5957600080fd5b60016007600085815260200190815260200160002060060160006101000a81548160ff02191690836002811115611a8c57fe5b02179055504260076000858152602001908152602001600020600301819055506007600084815260200190815260200160002060020154420160076000858152602001908152602001600020600401819055506004600084815260200190815260200160002060000160009054906101000a900473ffffffffffffffffffffffffffffffffffffffff1673ffffffffffffffffffffffffffffffffffffffff166108fc60076000868152602001908152602001600020600501549081150290604051600060405180830381858888f19350505050158015611b71573d6000803e3d6000fd5b507fff9707690cfb78898f53d99d7ec9803862e46739e3e6af95284689f30c602ae46007600085815260200190815260200160002060000160009054906101000a900473ffffffffffffffffffffffffffffffffffffffff16604051808273ffffffffffffffffffffffffffffffffffffffff1673ffffffffffffffffffffffffffffffffffffffff16815260200180602001828103825260318152602001807f52656e7420737563636573732c20706c65617365206368616e6765207061737381526020017f776f726420627920796f757273656c660a0000000000000000000000000000008152506040019250505060405180910390a150919050565b60606008805480602002602001604051908101604052809291908181526020018280548015611cbe57602002820191906000526020600020905b815481526020019060010190808311611caa575b5050505050905090565b60036020528060005260406000206000915054906101000a900460ff1681565b611cf06129be565b60006001811115611cfd57fe5b6004600085815260200190815260200160002060060160009054906101000a900460ff166001811115611d2c57fe5b141515611d3857600080fd5b60e0604051908101604052803373ffffffffffffffffffffffffffffffffffffffff1681526020018481526020018381526020016000815260200160008152602001670de0b6b3a76400008460046000888152602001908152602001600020600301540202815260200160006002811115611daf57fe5b81525090508060a0015134141515611dc657600080fd5b60016006600085815260200190815260200160002060006101000a81548160ff021916908315150217905550806007600085815260200190815260200160002060008201518160000160006101000a81548173ffffffffffffffffffffffffffffffffffffffff021916908373ffffffffffffffffffffffffffffffffffffffff1602179055506020820151816001015560408201518160020155606082015181600301556080820151816004015560a0820151816005015560c08201518160060160006101000a81548160ff02191690836002811115611ea357fe5b0217905550905050600883908060018154018082558091505090600182039060005260206000200160009091929091909150555060016004600085815260200190815260200160002060060160006101000a81548160ff02191690836001811115611f0a57fe5b02179055507fff9707690cfb78898f53d99d7ec9803862e46739e3e6af95284689f30c602ae46004600085815260200190815260200160002060000160009054906101000a900473ffffffffffffffffffffffffffffffffffffffff16604051808273ffffffffffffffffffffffffffffffffffffffff1673ffffffffffffffffffffffffffffffffffffffff16815260200180602001828103825260258152602001807f536f6d656f6e65207265717569726520746f2072656e7420796f75722061636381526020017f6f756e740a0000000000000000000000000000000000000000000000000000008152506040019250505060405180910390a1505050565b806003600082815260200190815260200160002060009054906101000a900460ff16801561209b57503373ffffffffffffffffffffffffffffffffffffffff166004600083815260200190815260200160002060000160009054906101000a900473ffffffffffffffffffffffffffffffffffffffff1673ffffffffffffffffffffffffffffffffffffffff16145b1515612181576040517f08c379a00000000000000000000000000000000000000000000000000000000081526004018080602001828103825260648152602001807f506c6561736520636865636b207468652049442c206974207365656d7320746881526020017f61742074686973206163636f756e742069736e2774206578697374206f72207981526020017f6f7520617265206e6f7420746865206f776e6572206f6620746869732061636381526020017f6f756e740000000000000000000000000000000000000000000000000000000081525060800191505060405180910390fd5b6000600181111561218e57fe5b6004600084815260200190815260200160002060060160009054906101000a900460ff1660018111156121bd57fe5b1415156121c957600080fd5b60046000838152602001908152602001600020600080820160006101000a81549073ffffffffffffffffffffffffffffffffffffffff0219169055600182016000905560028201600061221c9190612a1d565b60038201600090556004820160006122349190612a1d565b6005820160006122449190612a1d565b6006820160006101000a81549060ff021916905550506003600083815260200190815260200160002060006101000a81549060ff02191690555050565b612289612a65565b6003600087815260200190815260200160002060009054906101000a900460ff161515156122b657600080fd5b60e0604051908101604052803373ffffffffffffffffffffffffffffffffffffffff1681526020018781526020018681526020018581526020018481526020018381526020016000600181111561230957fe5b81525090506005869080600181540180825580915050906001820390600052602060002001600090919290919091505550806004600088815260200190815260200160002060008201518160000160006101000a81548173ffffffffffffffffffffffffffffffffffffffff021916908373ffffffffffffffffffffffffffffffffffffffff1602179055506020820151816001015560408201518160020190805190602001906123bb929190612ac4565b506060820151816003015560808201518160040190805190602001906123e2929190612ac4565b5060a08201518160050190805190602001906123ff929190612ac4565b5060c08201518160060160006101000a81548160ff0219169083600181111561242457fe5b021790555090505060016003600088815260200190815260200160002060006101000a81548160ff021916908315150217905550505050505050565b60606002826040518082805190602001908083835b60208310151561249a5780518252602082019150602081019050602083039250612475565b6001836020036101000a03801982511681845116808217855250505050505090500191505090815260200160405180910390208054600181600116156101000203166002900480601f0160208091040260200160405190810160405280929190818152602001828054600181600116156101000203166002900480156125615780601f1061253657610100808354040283529160200191612561565b820191906000526020600020905b81548152906001019060200180831161254457829003601f168201915b50505050509050919050565b3373ffffffffffffffffffffffffffffffffffffffff166004600084815260200190815260200160002060000160009054906101000a900473ffffffffffffffffffffffffffffffffffffffff1673ffffffffffffffffffffffffffffffffffffffff1614801561261657506002808111156125e557fe5b6007600084815260200190815260200160002060060160009054906101000a900460ff16600281111561261457fe5b145b806126c757503373ffffffffffffffffffffffffffffffffffffffff166007600084815260200190815260200160002060000160009054906101000a900473ffffffffffffffffffffffffffffffffffffffff1673ffffffffffffffffffffffffffffffffffffffff161480156126c657506001600281111561269557fe5b6007600084815260200190815260200160002060060160009054906101000a900460ff1660028111156126c457fe5b145b5b15156126d257600080fd5b806004600084815260200190815260200160002060020190805190602001906126fc92919061293e565b505050565b60603373ffffffffffffffffffffffffffffffffffffffff166004600084815260200190815260200160002060000160009054906101000a900473ffffffffffffffffffffffffffffffffffffffff1673ffffffffffffffffffffffffffffffffffffffff161480156127ac575060028081111561277b57fe5b6007600084815260200190815260200160002060060160009054906101000a900460ff1660028111156127aa57fe5b145b8061285d57503373ffffffffffffffffffffffffffffffffffffffff166007600084815260200190815260200160002060000160009054906101000a900473ffffffffffffffffffffffffffffffffffffffff1673ffffffffffffffffffffffffffffffffffffffff1614801561285c57506001600281111561282b57fe5b6007600084815260200190815260200160002060060160009054906101000a900460ff16600281111561285a57fe5b145b5b151561286857600080fd5b600460008381526020019081526020016000206002018054600181600116156101000203166002900480601f0160208091040260200160405190810160405280929190818152602001828054600181600116156101000203166002900480156129125780601f106128e757610100808354040283529160200191612912565b820191906000526020600020905b8154815290600101906020018083116128f557829003601f168201915b50505050509050919050565b60066020528060005260406000206000915054906101000a900460ff1681565b828054600181600116156101000203166002900490600052602060002090601f016020900481019282601f1061297f57805160ff19168380011785556129ad565b828001600101855582156129ad579182015b828111156129ac578251825591602001919060010190612991565b5b5090506129ba9190612b44565b5090565b60e060405190810160405280600073ffffffffffffffffffffffffffffffffffffffff168152602001600081526020016000815260200160008152602001600081526020016000815260200160006002811115612a1757fe5b81525090565b50805460018160011615610100020316600290046000825580601f10612a435750612a62565b601f016020900490600052602060002090810190612a619190612b44565b5b50565b60e060405190810160405280600073ffffffffffffffffffffffffffffffffffffffff168152602001600081526020016060815260200160008152602001606081526020016060815260200160006001811115612abe57fe5b81525090565b828054600181600116156101000203166002900490600052602060002090601f016020900481019282601f10612b0557805160ff1916838001178555612b33565b82800160010185558215612b33579182015b82811115612b32578251825591602001919060010190612b17565b5b509050612b409190612b44565b5090565b612b6691905b80821115612b62576000816000905550600101612b4a565b5090565b905600a165627a7a7230582087d13d4e62e9b75dfceacc9c74b7e828cea788a72b81564352faf773ced94c9a0029",
  "source": "pragma solidity ^0.4.17;\n// pragma experimental ABIEncoderV2;\n\ncontract AccountRent {\n    // free  occupy \n    enum accountState {free, occupy}\n\n    // unconfirmconfirmend\n    enum rentState {unconfirm, confirm, end}\n\n    struct rent {\n        address renterAddress;  // \n        uint id;                // \n        uint rentTime;          // \n        uint beginTime;         // \n        uint endTime;           // \n        uint cost;              // \n        rentState state;        // \n    }\n\n    struct account {\n        address ownerAddress;   // \n        uint id;                // \n        string password;        // \n        uint price;             // \n        string accountType;     // \n        string description;     // \n        accountState state;     // \n    }\n\n    /************/\n    // \n    mapping (string => bool) userExist;\n    function getUserExist(string _username) public view returns (bool) {\n        return userExist[_username];\n    }\n    // \n    mapping (string => address) userAddress;\n    function getUserAddress(string _username) public view returns (address) {\n        return userAddress[_username];\n    }\n    // \n    mapping (string => string) userPassword;\n    function getUserPassword(string _username) public view returns (string) {\n        return userPassword[_username];\n    }\n    /****************/\n\n    // \n    function regist(string _username, string _password, address _userAddress) public {\n        if (userExist[_username] == false) {\n            userExist[_username] = true;\n            userPassword[_username] = _password;\n            userAddress[_username] = _userAddress;\n        }\n    }\n\n    /************/\n    // \n    mapping (uint => bool) public existAccount;\n    // \n    mapping (uint => account) public accountPool;\n    // \n    uint[] accountList;\n    function getAccountList() public view returns (uint[]) {\n        return accountList;\n    }\n    /****************/\n\n    /************/\n    // \n    mapping (uint => bool) public existRent;\n    // \n    mapping (uint => rent) public rentPool;\n    // \n    uint[] rentList;\n    function getRentList() public view returns (uint[]) {\n        return rentList;\n    }\n    /***************/\n\n    // \n    event notice(address addr, string message);\n\n    // \n    modifier onlyOwner(uint _id) {\n        require(existAccount[_id] && accountPool[_id].ownerAddress == msg.sender,\n            \"Please check the ID, it seems that this account isn't exist or you are not the owner of this account\");\n        _;\n    }\n\n    // \n    modifier onlyRenter(uint _id) {\n        require(existAccount[_id] && rentPool[_id].renterAddress == msg.sender,\n            \"Please check the ID, it seems that this account isn't exist or you are not the renter of this account\");\n        _;\n    }\n\n    /**\n     * description: \n     * param _id: \n     * param _rentTime: //\n     */\n    function createRent(uint _id, uint _rentTime) public payable {\n        // \n        require(accountPool[_id].state == accountState.free);\n        // \n        rent memory newRent = rent({\n            renterAddress: msg.sender,\n            id: _id,\n            rentTime: _rentTime,\n            state: rentState.unconfirm,\n            beginTime: 0,\n            endTime: 0,\n            cost: accountPool[_id].price * _rentTime * 1 ether\n        });\n        // , \n        require(msg.value == newRent.cost); \n        // \n        existRent[_id] = true;\n        rentPool[_id] = newRent;\n        rentList.push(_id);\n        // \n        accountPool[_id].state = accountState.occupy;\n        // \n        emit notice(accountPool[_id].ownerAddress, \"Someone require to rent your account\\n\");\n    }\n\n    /**\n     * description: \n     * param _id\n     */\n    function confirmRent(uint _id) public onlyOwner(_id) returns (string) {\n        // \n        require(rentPool[_id].state == rentState.unconfirm); \n        // \n        rentPool[_id].state = rentState.confirm;\n        rentPool[_id].beginTime = now;\n        rentPool[_id].endTime = now + rentPool[_id].rentTime;\n        // \n        accountPool[_id].ownerAddress.transfer(rentPool[_id].cost);\n        // \n        emit notice(rentPool[_id].renterAddress, \"Rent success, please change password by yourself\\n\");\n    }\n\n    /**\n     * description: \n     * param _id: \n     */\n    function refuseRent(uint _id) public onlyOwner(_id) {\n        // \n        require(rentPool[_id].state == rentState.unconfirm); \n        // \n        rentPool[_id].state == rentState.end;\n        accountPool[_id].state = accountState.free;\n        // \n        rentPool[_id].renterAddress.transfer(rentPool[_id].cost);\n        // \n        delete rentPool[_id];\n        delete existRent[_id];\n        // \n        emit notice(rentPool[_id].renterAddress, \"The owner refuse your rent request\\n\");\n    }\n\n    /**\n     * description: \n     * param _id: \n     * param _password: \n     */\n    function changePassword(uint _id, string _password) public {\n        // \n        //          \n        require((accountPool[_id].ownerAddress == msg.sender && rentPool[_id].state == rentState.end) ||\n            (rentPool[_id].renterAddress == msg.sender && rentPool[_id].state == rentState.confirm));\n        accountPool[_id].password = _password; \n    }\n\n    /**\n     * description: \n     * param _id: \n     */\n    function getPassword(uint _id) public view returns (string) {\n        // \n        //          \n        require((accountPool[_id].ownerAddress == msg.sender && rentPool[_id].state == rentState.end) ||\n            (rentPool[_id].renterAddress == msg.sender && rentPool[_id].state == rentState.confirm));\n        return accountPool[_id].password;\n    }\n\n    /**\n     * description: \n     * param _id: \n     */\n    function endRent(uint _id) public {\n        // \n        require(existAccount[_id] && accountPool[_id].ownerAddress == msg.sender &&\n            (rentPool[_id].state == rentState.unconfirm || now - rentPool[_id].beginTime >= rentPool[_id].rentTime) ||\n            existAccount[_id] && rentPool[_id].renterAddress == msg.sender);\n\n        // \n        rentPool[_id].state == rentState.end;\n        accountPool[_id].state = accountState.free;\n        // \n        delete rentPool[_id];\n        delete existRent[_id];\n    }\n\n    /**\n     * description: \n     * param _id: \n     * param _password: \n     * param _price: \n     * param _description: \n     */\n    function createAccount(uint _id, string _password, uint _price, string _accountType, string _description) public {\n        require(!existAccount[_id]); // \n        // \n        account memory newAccount = account({\n            ownerAddress: msg.sender,\n            id: _id,\n            password: _password,\n            price: _price,\n            accountType: _accountType,\n            description: _description,\n            state: accountState.free\n        });\n        accountList.push(_id);\n        // \n        accountPool[_id] = newAccount;\n        // \n        existAccount[_id] = true;\n    }\n\n    /**\n     * description: \n     * param _id: \n     */\n    function removeAccount(uint _id) public onlyOwner(_id) {\n        require(accountPool[_id].state == accountState.free);\n        // \n        delete accountPool[_id];\n        delete existAccount[_id];\n    }\n}",
  "sourcePath": "E:\\\\\\myDapp\\contracts\\AccountRent.sol",
  "compiler": {
    "name": "solc",
    "version": "0.4.24+commit.e67f0147.Emscripten.clang"
  },
  "schemaVersion": "2.0.1",
  "updatedAt": "2018-12-30T13:37:07.728Z"
}