{
  "contractName": "AccountRent",
  "abi": [
    {
      "anonymous": false,
      "inputs": [
        {
          "indexed": false,
          "name": "addr",
          "type": "address"
        },
        {
          "indexed": false,
          "name": "message",
          "type": "string"
        }
      ],
      "name": "notice",
      "type": "event"
    },
    {
      "constant": true,
      "inputs": [
        {
          "name": "_username",
          "type": "string"
        }
      ],
      "name": "getUserAddress",
      "outputs": [
        {
          "name": "",
          "type": "address"
        }
      ],
      "payable": false,
      "stateMutability": "view",
      "type": "function"
    },
    {
      "constant": true,
      "inputs": [],
      "name": "getRents",
      "outputs": [
        {
          "components": [
            {
              "name": "renterAddress",
              "type": "address"
            },
            {
              "name": "id",
              "type": "string"
            },
            {
              "name": "rentTime",
              "type": "uint256"
            },
            {
              "name": "beginTime",
              "type": "uint256"
            },
            {
              "name": "endTime",
              "type": "uint256"
            },
            {
              "name": "cost",
              "type": "uint256"
            },
            {
              "name": "state",
              "type": "uint8"
            }
          ],
          "name": "",
          "type": "tuple[]"
        }
      ],
      "payable": false,
      "stateMutability": "view",
      "type": "function"
    },
    {
      "constant": true,
      "inputs": [
        {
          "name": "_username",
          "type": "string"
        }
      ],
      "name": "getAccount",
      "outputs": [
        {
          "components": [
            {
              "name": "ownerAddress",
              "type": "address"
            },
            {
              "name": "id",
              "type": "string"
            },
            {
              "name": "password",
              "type": "string"
            },
            {
              "name": "price",
              "type": "uint256"
            },
            {
              "name": "accountType",
              "type": "string"
            },
            {
              "name": "description",
              "type": "string"
            },
            {
              "name": "state",
              "type": "uint8"
            }
          ],
          "name": "",
          "type": "tuple"
        }
      ],
      "payable": false,
      "stateMutability": "view",
      "type": "function"
    },
    {
      "constant": true,
      "inputs": [],
      "name": "getAccounts",
      "outputs": [
        {
          "components": [
            {
              "name": "ownerAddress",
              "type": "address"
            },
            {
              "name": "id",
              "type": "string"
            },
            {
              "name": "password",
              "type": "string"
            },
            {
              "name": "price",
              "type": "uint256"
            },
            {
              "name": "accountType",
              "type": "string"
            },
            {
              "name": "description",
              "type": "string"
            },
            {
              "name": "state",
              "type": "uint8"
            }
          ],
          "name": "",
          "type": "tuple[]"
        }
      ],
      "payable": false,
      "stateMutability": "view",
      "type": "function"
    },
    {
      "constant": true,
      "inputs": [
        {
          "name": "_account",
          "type": "string"
        }
      ],
      "name": "checkAccountExist",
      "outputs": [
        {
          "name": "",
          "type": "bool"
        }
      ],
      "payable": false,
      "stateMutability": "view",
      "type": "function"
    },
    {
      "constant": true,
      "inputs": [
        {
          "name": "_username",
          "type": "string"
        }
      ],
      "name": "checkUserExist",
      "outputs": [
        {
          "name": "",
          "type": "bool"
        }
      ],
      "payable": false,
      "stateMutability": "view",
      "type": "function"
    },
    {
      "constant": false,
      "inputs": [
        {
          "name": "_username",
          "type": "string"
        },
        {
          "name": "_password",
          "type": "string"
        },
        {
          "name": "_userAddress",
          "type": "address"
        }
      ],
      "name": "regist",
      "outputs": [],
      "payable": false,
      "stateMutability": "nonpayable",
      "type": "function"
    },
    {
      "constant": true,
      "inputs": [
        {
          "name": "_username",
          "type": "string"
        }
      ],
      "name": "loginCheck",
      "outputs": [
        {
          "name": "",
          "type": "string"
        }
      ],
      "payable": false,
      "stateMutability": "view",
      "type": "function"
    },
    {
      "constant": false,
      "inputs": [
        {
          "name": "_id",
          "type": "string"
        },
        {
          "name": "_rentTime",
          "type": "uint256"
        }
      ],
      "name": "createRent",
      "outputs": [],
      "payable": true,
      "stateMutability": "payable",
      "type": "function"
    },
    {
      "constant": false,
      "inputs": [
        {
          "name": "_id",
          "type": "string"
        }
      ],
      "name": "confirmRent",
      "outputs": [
        {
          "name": "",
          "type": "string"
        }
      ],
      "payable": false,
      "stateMutability": "nonpayable",
      "type": "function"
    },
    {
      "constant": false,
      "inputs": [
        {
          "name": "_id",
          "type": "string"
        }
      ],
      "name": "refuseRent",
      "outputs": [],
      "payable": false,
      "stateMutability": "nonpayable",
      "type": "function"
    },
    {
      "constant": false,
      "inputs": [
        {
          "name": "_id",
          "type": "string"
        },
        {
          "name": "_password",
          "type": "string"
        }
      ],
      "name": "changePassword",
      "outputs": [],
      "payable": false,
      "stateMutability": "nonpayable",
      "type": "function"
    },
    {
      "constant": true,
      "inputs": [
        {
          "name": "_id",
          "type": "string"
        }
      ],
      "name": "getPassword",
      "outputs": [
        {
          "name": "",
          "type": "string"
        }
      ],
      "payable": false,
      "stateMutability": "view",
      "type": "function"
    },
    {
      "constant": false,
      "inputs": [
        {
          "name": "_id",
          "type": "string"
        }
      ],
      "name": "endRent",
      "outputs": [],
      "payable": false,
      "stateMutability": "nonpayable",
      "type": "function"
    },
    {
      "constant": false,
      "inputs": [
        {
          "name": "_id",
          "type": "string"
        },
        {
          "name": "_password",
          "type": "string"
        },
        {
          "name": "_price",
          "type": "uint256"
        },
        {
          "name": "_accountType",
          "type": "string"
        },
        {
          "name": "_description",
          "type": "string"
        }
      ],
      "name": "createAccount",
      "outputs": [],
      "payable": false,
      "stateMutability": "nonpayable",
      "type": "function"
    },
    {
      "constant": false,
      "inputs": [
        {
          "name": "_id",
          "type": "string"
        }
      ],
      "name": "removeAccount",
      "outputs": [],
      "payable": false,
      "stateMutability": "nonpayable",
      "type": "function"
    },
    {
      "constant": true,
      "inputs": [
        {
          "name": "_id",
          "type": "string"
        }
      ],
      "name": "getAccountState",
      "outputs": [
        {
          "name": "",
          "type": "uint8"
        }
      ],
      "payable": false,
      "stateMutability": "view",
      "type": "function"
    }
  ],
  "bytecode": "0x608060405234801561001057600080fd5b506145c5806100206000396000f3006080604052600436106100f1576000357c0100000000000000000000000000000000000000000000000000000000900463ffffffff16806301b8c31c146100f65780630420d56b146101335780632badd4b7146101705780633c5ea0f31461018c57806342b126c9146101b75780634518f6b3146101f457806346038ddc146102315780634985e85c1461025a5780634e5a77041461029757806371ea9a89146102c057806374c6855d146102e957806384a8366214610326578063864fdd291461034f5780638a48ac031461038c5780639cf08314146103b7578063e92695a0146103e0578063eee1b73a14610409575b600080fd5b34801561010257600080fd5b5061011d60048036036101189190810190613aa4565b610446565b60405161012a919061436b565b60405180910390f35b34801561013f57600080fd5b5061015a60048036036101559190810190613aa4565b61089c565b6040516101679190614350565b60405180910390f35b61018a60048036036101859190810190613ca7565b6109a5565b005b34801561019857600080fd5b506101a1610db1565b6040516101ae9190614313565b60405180910390f35b3480156101c357600080fd5b506101de60048036036101d99190810190613aa4565b610f5e565b6040516101eb9190614335565b60405180910390f35b34801561020057600080fd5b5061021b60048036036102169190810190613aa4565b610fe0565b60405161022891906143ad565b60405180910390f35b34801561023d57600080fd5b5061025860048036036102539190810190613aa4565b61137b565b005b34801561026657600080fd5b50610281600480360361027c9190810190613aa4565b611714565b60405161028e919061424c565b60405180910390f35b3480156102a357600080fd5b506102be60048036036102b99190810190613aa4565b6117a9565b005b3480156102cc57600080fd5b506102e760048036036102e29190810190613b51565b611cfa565b005b3480156102f557600080fd5b50610310600480360361030b9190810190613aa4565b611f33565b60405161031d919061436b565b60405180910390f35b34801561033257600080fd5b5061034d60048036036103489190810190613ae5565b612040565b005b34801561035b57600080fd5b5061037660048036036103719190810190613aa4565b61240d565b604051610383919061436b565b60405180910390f35b34801561039857600080fd5b506103a1612a23565b6040516103ae91906142f1565b60405180910390f35b3480156103c357600080fd5b506103de60048036036103d99190810190613bd0565b612d98565b005b3480156103ec57600080fd5b5061040760048036036104029190810190613aa4565b613185565b005b34801561041557600080fd5b50610430600480360361042b9190810190613aa4565b613779565b60405161043d9190614335565b60405180910390f35b60606007826040518082805190602001908083835b602083101515610480578051825260208201915060208101905060208303925061045b565b6001836020036101000a038019825116818451168082178552505050505050905001915050908152602001604051809103902060009054906101000a900460ff16801561062257503373ffffffffffffffffffffffffffffffffffffffff166005836040518082805190602001908083835b60208310151561051757805182526020820191506020810190506020830392506104f2565b6001836020036101000a038019825116818451168082178552505050505050905001915050908152602001604051809103902060000160009054906101000a900473ffffffffffffffffffffffffffffffffffffffff1673ffffffffffffffffffffffffffffffffffffffff16148015610621575060028081111561059857fe5b6006836040518082805190602001908083835b6020831015156105d057805182526020820191506020810190506020830392506105ab565b6001836020036101000a038019825116818451168082178552505050505050905001915050908152602001604051809103902060060160009054906101000a900460ff16600281111561061f57fe5b145b5b8061078357503373ffffffffffffffffffffffffffffffffffffffff166006836040518082805190602001908083835b6020831015156106775780518252602082019150602081019050602083039250610652565b6001836020036101000a038019825116818451168082178552505050505050905001915050908152602001604051809103902060000160009054906101000a900473ffffffffffffffffffffffffffffffffffffffff1673ffffffffffffffffffffffffffffffffffffffff161480156107825750600160028111156106f957fe5b6006836040518082805190602001908083835b602083101515610731578051825260208201915060208101905060208303925061070c565b6001836020036101000a038019825116818451168082178552505050505050905001915050908152602001604051809103902060060160009054906101000a900460ff16600281111561078057fe5b145b5b151561078e57600080fd5b6005826040518082805190602001908083835b6020831015156107c657805182526020820191506020810190506020830392506107a1565b6001836020036101000a03801982511681845116808217855250505050505090500191505090815260200160405180910390206002018054600181600116156101000203166002900480601f0160208091040260200160405190810160405280929190818152602001828054600181600116156101000203166002900480156108905780601f1061086557610100808354040283529160200191610890565b820191906000526020600020905b81548152906001019060200180831161087357829003601f168201915b50505050509050919050565b60006007826040518082805190602001908083835b6020831015156108d657805182526020820191506020810190506020830392506108b1565b6001836020036101000a038019825116818451168082178552505050505050905001915050908152602001604051809103902060009054906101000a900460ff16151561092257600080fd5b6005826040518082805190602001908083835b60208310151561095a5780518252602082019150602081019050602083039250610935565b6001836020036101000a038019825116818451168082178552505050505050905001915050908152602001604051809103902060060160009054906101000a900460ff169050919050565b6109ad6137fb565b600060018111156109ba57fe5b6005846040518082805190602001908083835b6020831015156109f257805182526020820191506020810190506020830392506109cd565b6001836020036101000a038019825116818451168082178552505050505050905001915050908152602001604051809103902060060160009054906101000a900460ff166001811115610a4157fe5b141515610a4d57600080fd5b60e0604051908101604052803373ffffffffffffffffffffffffffffffffffffffff1681526020018481526020018381526020016000815260200160008152602001670de0b6b3a7640000846005876040518082805190602001908083835b602083101515610ad15780518252602082019150602081019050602083039250610aac565b6001836020036101000a0380198251168184511680821785525050505050509050019150509081526020016040518091039020600301540202815260200160006002811115610b1c57fe5b81525090508060a0015134141515610b3357600080fd5b806006846040518082805190602001908083835b602083101515610b6c5780518252602082019150602081019050602083039250610b47565b6001836020036101000a038019825116818451168082178552505050505050905001915050908152602001604051809103902060008201518160000160006101000a81548173ffffffffffffffffffffffffffffffffffffffff021916908373ffffffffffffffffffffffffffffffffffffffff1602179055506020820151816001019080519060200190610c0292919061385a565b5060408201518160020155606082015181600301556080820151816004015560a0820151816005015560c08201518160060160006101000a81548160ff02191690836002811115610c4f57fe5b021790555090505060016005846040518082805190602001908083835b602083101515610c915780518252602082019150602081019050602083039250610c6c565b6001836020036101000a038019825116818451168082178552505050505050905001915050908152602001604051809103902060060160006101000a81548160ff02191690836001811115610ce257fe5b02179055507fff9707690cfb78898f53d99d7ec9803862e46739e3e6af95284689f30c602ae46005846040518082805190602001908083835b602083101515610d405780518252602082019150602081019050602083039250610d1b565b6001836020036101000a038019825116818451168082178552505050505050905001915050908152602001604051809103902060000160009054906101000a900473ffffffffffffffffffffffffffffffffffffffff16604051610da49190614295565b60405180910390a1505050565b60606001805480602002602001604051908101604052809291908181526020016000905b82821015610f55578382906000526020600020906007020160e060405190810160405290816000820160009054906101000a900473ffffffffffffffffffffffffffffffffffffffff1673ffffffffffffffffffffffffffffffffffffffff1673ffffffffffffffffffffffffffffffffffffffff168152602001600182018054600181600116156101000203166002900480601f016020809104026020016040519081016040528092919081815260200182805460018160011615610100020316600290048015610ee85780601f10610ebd57610100808354040283529160200191610ee8565b820191906000526020600020905b815481529060010190602001808311610ecb57829003601f168201915b50505050508152602001600282015481526020016003820154815260200160048201548152602001600582015481526020016006820160009054906101000a900460ff166002811115610f3757fe5b6002811115610f4257fe5b8152505081526020019060010190610dd5565b50505050905090565b60006002826040518082805190602001908083835b602083101515610f985780518252602082019150602081019050602083039250610f73565b6001836020036101000a038019825116818451168082178552505050505050905001915050908152602001604051809103902060009054906101000a900460ff169050919050565b610fe86138da565b6005826040518082805190602001908083835b6020831015156110205780518252602082019150602081019050602083039250610ffb565b6001836020036101000a038019825116818451168082178552505050505050905001915050908152602001604051809103902060e060405190810160405290816000820160009054906101000a900473ffffffffffffffffffffffffffffffffffffffff1673ffffffffffffffffffffffffffffffffffffffff1673ffffffffffffffffffffffffffffffffffffffff168152602001600182018054600181600116156101000203166002900480601f01602080910402602001604051908101604052809291908181526020018280546001816001161561010002031660029004801561114e5780601f106111235761010080835404028352916020019161114e565b820191906000526020600020905b81548152906001019060200180831161113157829003601f168201915b50505050508152602001600282018054600181600116156101000203166002900480601f0160208091040260200160405190810160405280929190818152602001828054600181600116156101000203166002900480156111f05780601f106111c5576101008083540402835291602001916111f0565b820191906000526020600020905b8154815290600101906020018083116111d357829003601f168201915b5050505050815260200160038201548152602001600482018054600181600116156101000203166002900480601f01602080910402602001604051908101604052809291908181526020018280546001816001161561010002031660029004801561129c5780601f106112715761010080835404028352916020019161129c565b820191906000526020600020905b81548152906001019060200180831161127f57829003601f168201915b50505050508152602001600582018054600181600116156101000203166002900480601f01602080910402602001604051908101604052809291908181526020018280546001816001161561010002031660029004801561133e5780601f106113135761010080835404028352916020019161133e565b820191906000526020600020905b81548152906001019060200180831161132157829003601f168201915b505050505081526020016006820160009054906101000a900460ff16600181111561136557fe5b600181111561137057fe5b815250509050919050565b806007816040518082805190602001908083835b6020831015156113b4578051825260208201915060208101905060208303925061138f565b6001836020036101000a038019825116818451168082178552505050505050905001915050908152602001604051809103902060009054906101000a900460ff1680156114ba57503373ffffffffffffffffffffffffffffffffffffffff166005826040518082805190602001908083835b60208310151561144b5780518252602082019150602081019050602083039250611426565b6001836020036101000a038019825116818451168082178552505050505050905001915050908152602001604051809103902060000160009054906101000a900473ffffffffffffffffffffffffffffffffffffffff1673ffffffffffffffffffffffffffffffffffffffff16145b15156114fb576040517f08c379a00000000000000000000000000000000000000000000000000000000081526004016114f29061438d565b60405180910390fd5b6000600181111561150857fe5b6005836040518082805190602001908083835b602083101515611540578051825260208201915060208101905060208303925061151b565b6001836020036101000a038019825116818451168082178552505050505050905001915050908152602001604051809103902060060160009054906101000a900460ff16600181111561158f57fe5b14151561159b57600080fd5b6005826040518082805190602001908083835b6020831015156115d357805182526020820191506020810190506020830392506115ae565b6001836020036101000a0380198251168184511680821785525050505050509050019150509081526020016040518091039020600080820160006101000a81549073ffffffffffffffffffffffffffffffffffffffff021916905560018201600061163e9190613939565b60028201600061164e9190613939565b60038201600090556004820160006116669190613939565b6005820160006116769190613939565b6006820160006101000a81549060ff0219169055505060006007836040518082805190602001908083835b6020831015156116c657805182526020820191506020810190506020830392506116a1565b6001836020036101000a038019825116818451168082178552505050505050905001915050908152602001604051809103902060006101000a81548160ff0219169083151502179055505050565b60006003826040518082805190602001908083835b60208310151561174e5780518252602082019150602081019050602083039250611729565b6001836020036101000a038019825116818451168082178552505050505050905001915050908152602001604051809103902060009054906101000a900473ffffffffffffffffffffffffffffffffffffffff169050919050565b806007816040518082805190602001908083835b6020831015156117e257805182526020820191506020810190506020830392506117bd565b6001836020036101000a038019825116818451168082178552505050505050905001915050908152602001604051809103902060009054906101000a900460ff1680156118e857503373ffffffffffffffffffffffffffffffffffffffff166005826040518082805190602001908083835b6020831015156118795780518252602082019150602081019050602083039250611854565b6001836020036101000a038019825116818451168082178552505050505050905001915050908152602001604051809103902060000160009054906101000a900473ffffffffffffffffffffffffffffffffffffffff1673ffffffffffffffffffffffffffffffffffffffff16145b1515611929576040517f08c379a00000000000000000000000000000000000000000000000000000000081526004016119209061438d565b60405180910390fd5b6000600281111561193657fe5b6006836040518082805190602001908083835b60208310151561196e5780518252602082019150602081019050602083039250611949565b6001836020036101000a038019825116818451168082178552505050505050905001915050908152602001604051809103902060060160009054906101000a900460ff1660028111156119bd57fe5b1415156119c957600080fd5b6002808111156119d557fe5b6006836040518082805190602001908083835b602083101515611a0d57805182526020820191506020810190506020830392506119e8565b6001836020036101000a038019825116818451168082178552505050505050905001915050908152602001604051809103902060060160009054906101000a900460ff166002811115611a5c57fe5b505060006005836040518082805190602001908083835b602083101515611a985780518252602082019150602081019050602083039250611a73565b6001836020036101000a038019825116818451168082178552505050505050905001915050908152602001604051809103902060060160006101000a81548160ff02191690836001811115611ae957fe5b02179055506006826040518082805190602001908083835b602083101515611b265780518252602082019150602081019050602083039250611b01565b6001836020036101000a038019825116818451168082178552505050505050905001915050908152602001604051809103902060000160009054906101000a900473ffffffffffffffffffffffffffffffffffffffff1673ffffffffffffffffffffffffffffffffffffffff166108fc6006846040518082805190602001908083835b602083101515611bce5780518252602082019150602081019050602083039250611ba9565b6001836020036101000a0380198251168184511680821785525050505050509050019150509081526020016040518091039020600501549081150290604051600060405180830381858888f19350505050158015611c30573d6000803e3d6000fd5b507fff9707690cfb78898f53d99d7ec9803862e46739e3e6af95284689f30c602ae46006836040518082805190602001908083835b602083101515611c8a5780518252602082019150602081019050602083039250611c65565b6001836020036101000a038019825116818451168082178552505050505050905001915050908152602001604051809103902060000160009054906101000a900473ffffffffffffffffffffffffffffffffffffffff16604051611cee91906142c3565b60405180910390a15050565b600015156002846040518082805190602001908083835b602083101515611d365780518252602082019150602081019050602083039250611d11565b6001836020036101000a038019825116818451168082178552505050505050905001915050908152602001604051809103902060009054906101000a900460ff1615151415611f2e5760016002846040518082805190602001908083835b602083101515611db95780518252602082019150602081019050602083039250611d94565b6001836020036101000a038019825116818451168082178552505050505050905001915050908152602001604051809103902060006101000a81548160ff021916908315150217905550816004846040518082805190602001908083835b602083101515611e3c5780518252602082019150602081019050602083039250611e17565b6001836020036101000a03801982511681845116808217855250505050505090500191505090815260200160405180910390209080519060200190611e82929190613981565b50806003846040518082805190602001908083835b602083101515611ebc5780518252602082019150602081019050602083039250611e97565b6001836020036101000a038019825116818451168082178552505050505050905001915050908152602001604051809103902060006101000a81548173ffffffffffffffffffffffffffffffffffffffff021916908373ffffffffffffffffffffffffffffffffffffffff1602179055505b505050565b60606004826040518082805190602001908083835b602083101515611f6d5780518252602082019150602081019050602083039250611f48565b6001836020036101000a03801982511681845116808217855250505050505090500191505090815260200160405180910390208054600181600116156101000203166002900480601f0160208091040260200160405190810160405280929190818152602001828054600181600116156101000203166002900480156120345780601f1061200957610100808354040283529160200191612034565b820191906000526020600020905b81548152906001019060200180831161201757829003601f168201915b50505050509050919050565b6007826040518082805190602001908083835b6020831015156120785780518252602082019150602081019050602083039250612053565b6001836020036101000a038019825116818451168082178552505050505050905001915050908152602001604051809103902060009054906101000a900460ff16801561221a57503373ffffffffffffffffffffffffffffffffffffffff166005836040518082805190602001908083835b60208310151561210f57805182526020820191506020810190506020830392506120ea565b6001836020036101000a038019825116818451168082178552505050505050905001915050908152602001604051809103902060000160009054906101000a900473ffffffffffffffffffffffffffffffffffffffff1673ffffffffffffffffffffffffffffffffffffffff16148015612219575060028081111561219057fe5b6006836040518082805190602001908083835b6020831015156121c857805182526020820191506020810190506020830392506121a3565b6001836020036101000a038019825116818451168082178552505050505050905001915050908152602001604051809103902060060160009054906101000a900460ff16600281111561221757fe5b145b5b8061237b57503373ffffffffffffffffffffffffffffffffffffffff166006836040518082805190602001908083835b60208310151561226f578051825260208201915060208101905060208303925061224a565b6001836020036101000a038019825116818451168082178552505050505050905001915050908152602001604051809103902060000160009054906101000a900473ffffffffffffffffffffffffffffffffffffffff1673ffffffffffffffffffffffffffffffffffffffff1614801561237a5750600160028111156122f157fe5b6006836040518082805190602001908083835b6020831015156123295780518252602082019150602081019050602083039250612304565b6001836020036101000a038019825116818451168082178552505050505050905001915050908152602001604051809103902060060160009054906101000a900460ff16600281111561237857fe5b145b5b151561238657600080fd5b806005836040518082805190602001908083835b6020831015156123bf578051825260208201915060208101905060208303925061239a565b6001836020036101000a03801982511681845116808217855250505050505090500191505090815260200160405180910390206002019080519060200190612408929190613981565b505050565b6060816007816040518082805190602001908083835b6020831015156124485780518252602082019150602081019050602083039250612423565b6001836020036101000a038019825116818451168082178552505050505050905001915050908152602001604051809103902060009054906101000a900460ff16801561254e57503373ffffffffffffffffffffffffffffffffffffffff166005826040518082805190602001908083835b6020831015156124df57805182526020820191506020810190506020830392506124ba565b6001836020036101000a038019825116818451168082178552505050505050905001915050908152602001604051809103902060000160009054906101000a900473ffffffffffffffffffffffffffffffffffffffff1673ffffffffffffffffffffffffffffffffffffffff16145b151561258f576040517f08c379a00000000000000000000000000000000000000000000000000000000081526004016125869061438d565b60405180910390fd5b6000600281111561259c57fe5b6006846040518082805190602001908083835b6020831015156125d457805182526020820191506020810190506020830392506125af565b6001836020036101000a038019825116818451168082178552505050505050905001915050908152602001604051809103902060060160009054906101000a900460ff16600281111561262357fe5b14151561262f57600080fd5b6005836040518082805190602001908083835b6020831015156126675780518252602082019150602081019050602083039250612642565b6001836020036101000a038019825116818451168082178552505050505050905001915050908152602001604051809103902060000160009054906101000a900473ffffffffffffffffffffffffffffffffffffffff1673ffffffffffffffffffffffffffffffffffffffff166108fc6006856040518082805190602001908083835b60208310151561270f57805182526020820191506020810190506020830392506126ea565b6001836020036101000a0380198251168184511680821785525050505050509050019150509081526020016040518091039020600501549081150290604051600060405180830381858888f19350505050158015612771573d6000803e3d6000fd5b5060016006846040518082805190602001908083835b6020831015156127ac5780518252602082019150602081019050602083039250612787565b6001836020036101000a038019825116818451168082178552505050505050905001915050908152602001604051809103902060060160006101000a81548160ff021916908360028111156127fd57fe5b0217905550426006846040518082805190602001908083835b60208310151561283b5780518252602082019150602081019050602083039250612816565b6001836020036101000a0380198251168184511680821785525050505050509050019150509081526020016040518091039020600301819055506006836040518082805190602001908083835b6020831015156128ad5780518252602082019150602081019050602083039250612888565b6001836020036101000a03801982511681845116808217855250505050505090500191505090815260200160405180910390206002015442016006846040518082805190602001908083835b60208310151561291e57805182526020820191506020810190506020830392506128f9565b6001836020036101000a0380198251168184511680821785525050505050509050019150509081526020016040518091039020600401819055507fff9707690cfb78898f53d99d7ec9803862e46739e3e6af95284689f30c602ae46006846040518082805190602001908083835b6020831015156129b1578051825260208201915060208101905060208303925061298c565b6001836020036101000a038019825116818451168082178552505050505050905001915050908152602001604051809103902060000160009054906101000a900473ffffffffffffffffffffffffffffffffffffffff16604051612a159190614267565b60405180910390a150919050565b60606000805480602002602001604051908101604052809291908181526020016000905b82821015612d8f578382906000526020600020906007020160e060405190810160405290816000820160009054906101000a900473ffffffffffffffffffffffffffffffffffffffff1673ffffffffffffffffffffffffffffffffffffffff1673ffffffffffffffffffffffffffffffffffffffff168152602001600182018054600181600116156101000203166002900480601f016020809104026020016040519081016040528092919081815260200182805460018160011615610100020316600290048015612b5a5780601f10612b2f57610100808354040283529160200191612b5a565b820191906000526020600020905b815481529060010190602001808311612b3d57829003601f168201915b50505050508152602001600282018054600181600116156101000203166002900480601f016020809104026020016040519081016040528092919081815260200182805460018160011615610100020316600290048015612bfc5780601f10612bd157610100808354040283529160200191612bfc565b820191906000526020600020905b815481529060010190602001808311612bdf57829003601f168201915b5050505050815260200160038201548152602001600482018054600181600116156101000203166002900480601f016020809104026020016040519081016040528092919081815260200182805460018160011615610100020316600290048015612ca85780601f10612c7d57610100808354040283529160200191612ca8565b820191906000526020600020905b815481529060010190602001808311612c8b57829003601f168201915b50505050508152602001600582018054600181600116156101000203166002900480601f016020809104026020016040519081016040528092919081815260200182805460018160011615610100020316600290048015612d4a5780601f10612d1f57610100808354040283529160200191612d4a565b820191906000526020600020905b815481529060010190602001808311612d2d57829003601f168201915b505050505081526020016006820160009054906101000a900460ff166001811115612d7157fe5b6001811115612d7c57fe5b8152505081526020019060010190612a47565b50505050905090565b612da06138da565b6007866040518082805190602001908083835b602083101515612dd85780518252602082019150602081019050602083039250612db3565b6001836020036101000a038019825116818451168082178552505050505050905001915050908152602001604051809103902060009054906101000a900460ff16151515612e2557600080fd5b60e0604051908101604052803373ffffffffffffffffffffffffffffffffffffffff16815260200187815260200186815260200185815260200184815260200183815260200160006001811115612e7857fe5b81525090506000819080600181540180825580915050906001820390600052602060002090600702016000909192909190915060008201518160000160006101000a81548173ffffffffffffffffffffffffffffffffffffffff021916908373ffffffffffffffffffffffffffffffffffffffff1602179055506020820151816001019080519060200190612f0e92919061385a565b506040820151816002019080519060200190612f2b92919061385a565b50606082015181600301556080820151816004019080519060200190612f5292919061385a565b5060a0820151816005019080519060200190612f6f92919061385a565b5060c08201518160060160006101000a81548160ff02191690836001811115612f9457fe5b0217905550505050806005876040518082805190602001908083835b602083101515612fd55780518252602082019150602081019050602083039250612fb0565b6001836020036101000a038019825116818451168082178552505050505050905001915050908152602001604051809103902060008201518160000160006101000a81548173ffffffffffffffffffffffffffffffffffffffff021916908373ffffffffffffffffffffffffffffffffffffffff160217905550602082015181600101908051906020019061306b92919061385a565b50604082015181600201908051906020019061308892919061385a565b506060820151816003015560808201518160040190805190602001906130af92919061385a565b5060a08201518160050190805190602001906130cc92919061385a565b5060c08201518160060160006101000a81548160ff021916908360018111156130f157fe5b021790555090505060016007876040518082805190602001908083835b602083101515613133578051825260208201915060208101905060208303925061310e565b6001836020036101000a038019825116818451168082178552505050505050905001915050908152602001604051809103902060006101000a81548160ff021916908315150217905550505050505050565b6007816040518082805190602001908083835b6020831015156131bd5780518252602082019150602081019050602083039250613198565b6001836020036101000a038019825116818451168082178552505050505050905001915050908152602001604051809103902060009054906101000a900460ff1680156132c357503373ffffffffffffffffffffffffffffffffffffffff166005826040518082805190602001908083835b602083101515613254578051825260208201915060208101905060208303925061322f565b6001836020036101000a038019825116818451168082178552505050505050905001915050908152602001604051809103902060000160009054906101000a900473ffffffffffffffffffffffffffffffffffffffff1673ffffffffffffffffffffffffffffffffffffffff16145b80156134495750600060028111156132d757fe5b6006826040518082805190602001908083835b60208310151561330f57805182526020820191506020810190506020830392506132ea565b6001836020036101000a038019825116818451168082178552505050505050905001915050908152602001604051809103902060060160009054906101000a900460ff16600281111561335e57fe5b148061344857506006816040518082805190602001908083835b60208310151561339d5780518252602082019150602081019050602083039250613378565b6001836020036101000a0380198251168184511680821785525050505050509050019150509081526020016040518091039020600201546006826040518082805190602001908083835b60208310151561340c57805182526020820191506020810190506020830392506133e7565b6001836020036101000a038019825116818451168082178552505050505050905001915050908152602001604051809103902060030154420310155b5b8061358e57506007816040518082805190602001908083835b6020831015156134875780518252602082019150602081019050602083039250613462565b6001836020036101000a038019825116818451168082178552505050505050905001915050908152602001604051809103902060009054906101000a900460ff16801561358d57503373ffffffffffffffffffffffffffffffffffffffff166006826040518082805190602001908083835b60208310151561351e57805182526020820191506020810190506020830392506134f9565b6001836020036101000a038019825116818451168082178552505050505050905001915050908152602001604051809103902060000160009054906101000a900473ffffffffffffffffffffffffffffffffffffffff1673ffffffffffffffffffffffffffffffffffffffff16145b5b151561359957600080fd5b6002808111156135a557fe5b6006826040518082805190602001908083835b6020831015156135dd57805182526020820191506020810190506020830392506135b8565b6001836020036101000a038019825116818451168082178552505050505050905001915050908152602001604051809103902060060160009054906101000a900460ff16600281111561362c57fe5b505060006005826040518082805190602001908083835b6020831015156136685780518252602082019150602081019050602083039250613643565b6001836020036101000a038019825116818451168082178552505050505050905001915050908152602001604051809103902060060160006101000a81548160ff021916908360018111156136b957fe5b02179055506040805190810160405280600681526020017f72616e646f6d00000000000000000000000000000000000000000000000000008152506005826040518082805190602001908083835b60208310151561372c5780518252602082019150602081019050602083039250613707565b6001836020036101000a03801982511681845116808217855250505050505090500191505090815260200160405180910390206002019080519060200190613775929190613981565b5050565b60006007826040518082805190602001908083835b6020831015156137b3578051825260208201915060208101905060208303925061378e565b6001836020036101000a038019825116818451168082178552505050505050905001915050908152602001604051809103902060009054906101000a900460ff169050919050565b60e060405190810160405280600073ffffffffffffffffffffffffffffffffffffffff16815260200160608152602001600081526020016000815260200160008152602001600081526020016000600281111561385457fe5b81525090565b828054600181600116156101000203166002900490600052602060002090601f016020900481019282601f1061389b57805160ff19168380011785556138c9565b828001600101855582156138c9579182015b828111156138c85782518255916020019190600101906138ad565b5b5090506138d69190613a01565b5090565b60e060405190810160405280600073ffffffffffffffffffffffffffffffffffffffff16815260200160608152602001606081526020016000815260200160608152602001606081526020016000600181111561393357fe5b81525090565b50805460018160011615610100020316600290046000825580601f1061395f575061397e565b601f01602090049060005260206000209081019061397d9190613a01565b5b50565b828054600181600116156101000203166002900490600052602060002090601f016020900481019282601f106139c257805160ff19168380011785556139f0565b828001600101855582156139f0579182015b828111156139ef5782518255916020019190600101906139d4565b5b5090506139fd9190613a01565b5090565b613a2391905b80821115613a1f576000816000905550600101613a07565b5090565b90565b6000613a3282356144ea565b905092915050565b600082601f8301121515613a4d57600080fd5b8135613a60613a5b826143fc565b6143cf565b91508082526020830160208301858383011115613a7c57600080fd5b613a87838284614538565b50505092915050565b6000613a9c823561450a565b905092915050565b600060208284031215613ab657600080fd5b600082013567ffffffffffffffff811115613ad057600080fd5b613adc84828501613a3a565b91505092915050565b60008060408385031215613af857600080fd5b600083013567ffffffffffffffff811115613b1257600080fd5b613b1e85828601613a3a565b925050602083013567ffffffffffffffff811115613b3b57600080fd5b613b4785828601613a3a565b9150509250929050565b600080600060608486031215613b6657600080fd5b600084013567ffffffffffffffff811115613b8057600080fd5b613b8c86828701613a3a565b935050602084013567ffffffffffffffff811115613ba957600080fd5b613bb586828701613a3a565b9250506040613bc686828701613a26565b9150509250925092565b600080600080600060a08688031215613be857600080fd5b600086013567ffffffffffffffff811115613c0257600080fd5b613c0e88828901613a3a565b955050602086013567ffffffffffffffff811115613c2b57600080fd5b613c3788828901613a3a565b9450506040613c4888828901613a90565b935050606086013567ffffffffffffffff811115613c6557600080fd5b613c7188828901613a3a565b925050608086013567ffffffffffffffff811115613c8e57600080fd5b613c9a88828901613a3a565b9150509295509295909350565b60008060408385031215613cba57600080fd5b600083013567ffffffffffffffff811115613cd457600080fd5b613ce085828601613a3a565b9250506020613cf185828601613a90565b9150509250929050565b613d0481614488565b82525050565b6000613d1582614442565b80845260208401935083602082028501613d2e85614428565b60005b84811015613d67578383038852613d498383516140f0565b9250613d548261446e565b9150602088019750600181019050613d31565b508196508694505050505092915050565b6000613d838261444d565b80845260208401935083602082028501613d9c85614435565b60005b84811015613dd5578383038852613db78383516141a1565b9250613dc28261447b565b9150602088019750600181019050613d9f565b508196508694505050505092915050565b613def816144a8565b82525050565b613dfe81614514565b82525050565b613e0d81614526565b82525050565b6000613e1e82614463565b808452613e32816020860160208601614547565b613e3b8161457a565b602085010191505092915050565b6000613e5482614458565b808452613e68816020860160208601614547565b613e718161457a565b602085010191505092915050565b6000606482527f506c6561736520636865636b207468652049442c206974207365656d7320746860208301527f61742074686973206163636f756e742069736e2774206578697374206f72207960408301527f6f7520617265206e6f7420746865206f776e6572206f6620746869732061636360608301527f6f756e7400000000000000000000000000000000000000000000000000000000608083015260a082019050919050565b6000603182527f52656e7420737563636573732c20706c65617365206368616e6765207061737360208301527f776f726420627920796f757273656c660a0000000000000000000000000000006040830152606082019050919050565b6000602582527f536f6d656f6e65207265717569726520746f2072656e7420796f75722061636360208301527f6f756e740a0000000000000000000000000000000000000000000000000000006040830152606082019050919050565b6000602382527f546865206f776e65722072656675736520796f75722072656e7420726571756560208301527f73740a00000000000000000000000000000000000000000000000000000000006040830152606082019050919050565b600060e0830160008301516140576000860182613cfb565b506020830151848203602086015261406f8282613e49565b915050604083015184820360408601526140898282613e49565b915050606083015161409e606086018261423d565b50608083015184820360808601526140b68282613e49565b91505060a083015184820360a08601526140d08282613e49565b91505060c08301516140e560c0860182613df5565b508091505092915050565b600060e0830160008301516141086000860182613cfb565b50602083015184820360208601526141208282613e49565b9150506040830151848203604086015261413a8282613e49565b915050606083015161414f606086018261423d565b50608083015184820360808601526141678282613e49565b91505060a083015184820360a08601526141818282613e49565b91505060c083015161419660c0860182613df5565b508091505092915050565b600060e0830160008301516141b96000860182613cfb565b50602083015184820360208601526141d18282613e49565b91505060408301516141e6604086018261423d565b5060608301516141f9606086018261423d565b50608083015161420c608086018261423d565b5060a083015161421f60a086018261423d565b5060c083015161423260c0860182613e04565b508091505092915050565b614246816144e0565b82525050565b60006020820190506142616000830184613cfb565b92915050565b600060408201905061427c6000830184613cfb565b818103602083015261428d81613f28565b905092915050565b60006040820190506142aa6000830184613cfb565b81810360208301526142bb81613f85565b905092915050565b60006040820190506142d86000830184613cfb565b81810360208301526142e981613fe2565b905092915050565b6000602082019050818103600083015261430b8184613d0a565b905092915050565b6000602082019050818103600083015261432d8184613d78565b905092915050565b600060208201905061434a6000830184613de6565b92915050565b60006020820190506143656000830184613df5565b92915050565b600060208201905081810360008301526143858184613e13565b905092915050565b600060208201905081810360008301526143a681613e7f565b9050919050565b600060208201905081810360008301526143c7818461403f565b905092915050565b6000604051905081810181811067ffffffffffffffff821117156143f257600080fd5b8060405250919050565b600067ffffffffffffffff82111561441357600080fd5b601f19601f8301169050602081019050919050565b6000602082019050919050565b6000602082019050919050565b600081519050919050565b600081519050919050565b600081519050919050565b600081519050919050565b6000602082019050919050565b6000602082019050919050565b600073ffffffffffffffffffffffffffffffffffffffff82169050919050565b60008115159050919050565b60006002821015156144c257fe5b819050919050565b60006003821015156144d857fe5b819050919050565b6000819050919050565b600073ffffffffffffffffffffffffffffffffffffffff82169050919050565b6000819050919050565b600061451f826144b4565b9050919050565b6000614531826144ca565b9050919050565b82818337600083830152505050565b60005b8381101561456557808201518184015260208101905061454a565b83811115614574576000848401525b50505050565b6000601f19601f83011690509190505600a265627a7a723058206f3a590cf477eacc5d36c310808b0c608bd70472fe5e0857892edb08aa296be66c6578706572696d656e74616cf50037",
  "source": "pragma solidity ^0.4.17;\npragma experimental ABIEncoderV2;\n\ncontract AccountRent {\n    // free  occupy \n    enum accountState {free, occupy}\n\n    // unconfirmconfirmend\n    enum rentState {unconfirm, confirm, end}\n\n    struct rent {\n        address renterAddress;  // \n        string id;              // \n        uint rentTime;          // \n        uint beginTime;         // \n        uint endTime;           // \n        uint cost;              // \n        rentState state;        // \n    }\n\n    struct account {\n        address ownerAddress;   // \n        string id;              // \n        string password;        // \n        uint price;             // \n        string accountType;     // \n        string description;     // \n        accountState state;     // \n    }\n\n    account[] accountList;\n    rent[] rentList;\n\n    // \n    mapping (string => bool) checkUser;\n\n    mapping (string => address) userToAddress;\n\n    // \n    mapping (string => string) checkPassword;\n\n    function getUserAddress(string _username) public view returns (address) {\n        return userToAddress[_username];\n    }\n\n    function getRents() public view returns (rent[]) {\n        return rentList;\n    }\n\n    function getAccount(string _username) public view returns (account) {\n        return accountPool[_username];\n    }\n\n    function getAccounts() public view returns (account[]) {\n        return accountList;\n    }\n\n    function checkAccountExist(string _account) public view returns (bool) {\n        return validAccounts[_account];\n    }\n\n    function checkUserExist(string _username) public view returns (bool) {\n        return checkUser[_username];\n    }\n\n    function regist(string _username, string _password, address _userAddress) public {\n        if (checkUser[_username] == false) {\n            checkUser[_username] = true;\n            checkPassword[_username] = _password;\n            userToAddress[_username] = _userAddress;\n        }\n    }\n\n    function loginCheck(string _username) public view returns (string) {\n        return checkPassword[_username];\n    }\n\n    // \n    mapping (string => account) accountPool;\n\n    // \n    mapping (string => rent) rentPool;\n\n    // \n    mapping (string => bool) validAccounts;\n\n    // \n    event notice(address addr, string message);\n\n    // \n    modifier onlyOwner(string _id) {\n        require(validAccounts[_id] && accountPool[_id].ownerAddress == msg.sender,\n            \"Please check the ID, it seems that this account isn't exist or you are not the owner of this account\");\n        _;\n    }\n\n    // \n    modifier onlyRenter(string _id) {\n        require(validAccounts[_id] && rentPool[_id].renterAddress == msg.sender,\n            \"Please check the ID, it seems that this account isn't exist or you are not the renter of this account\");\n        _;\n    }\n\n    /**\n     * description: \n     * param _id: \n     * param _rentTime: //\n     */\n    function createRent(string _id, uint _rentTime) public payable {\n        // \n        require(accountPool[_id].state == accountState.free);\n        // \n        rent memory newRent = rent({\n            renterAddress: msg.sender,\n            id: _id,\n            rentTime: _rentTime,\n            state: rentState.unconfirm,\n            beginTime: 0,\n            endTime: 0,\n            cost: accountPool[_id].price * _rentTime * 1 ether\n        });\n        // , \n        require(msg.value == newRent.cost); \n        // \n        rentPool[_id] = newRent;\n        // \n        accountPool[_id].state = accountState.occupy;\n        // \n        emit notice(accountPool[_id].ownerAddress, \"Someone require to rent your account\\n\");\n    }\n\n    /**\n     * description: \n     * param _id\n     */\n    function confirmRent(string _id) public onlyOwner(_id) returns (string) {\n        // \n        require(rentPool[_id].state == rentState.unconfirm); \n\n        accountPool[_id].ownerAddress.transfer(rentPool[_id].cost);\n        rentPool[_id].state = rentState.confirm;\n        rentPool[_id].beginTime = now;\n        rentPool[_id].endTime = now + rentPool[_id].rentTime;\n        // \n        emit notice(rentPool[_id].renterAddress, \"Rent success, please change password by yourself\\n\");\n    }\n\n    /**\n     * description: \n     * param _id: \n     */\n    function refuseRent(string _id) public onlyOwner(_id) {\n        // \n        require(rentPool[_id].state == rentState.unconfirm); \n\n        // \n        rentPool[_id].state == rentState.end;\n        accountPool[_id].state = accountState.free;\n        // \n        rentPool[_id].renterAddress.transfer(rentPool[_id].cost);\n        // \n        emit notice(rentPool[_id].renterAddress, \"The owner refuse your rent request\\n\");\n    }\n\n    /**\n     * description: \n     * param _id: \n     * param _password: \n     */\n    function changePassword(string _id, string _password) public {\n        // \n        // \n        //          \n        require(validAccounts[_id] && \n            (accountPool[_id].ownerAddress == msg.sender && rentPool[_id].state == rentState.end) ||\n            (rentPool[_id].renterAddress == msg.sender && rentPool[_id].state == rentState.confirm));\n        accountPool[_id].password = _password; \n    }\n\n    /**\n     * description: \n     * param _id: \n     */\n    function getPassword(string _id) public view returns (string) {\n        // \n        // \n        //          \n        require(validAccounts[_id] && \n            (accountPool[_id].ownerAddress == msg.sender && rentPool[_id].state == rentState.end) ||\n            (rentPool[_id].renterAddress == msg.sender && rentPool[_id].state == rentState.confirm));\n        return accountPool[_id].password;\n    }\n\n    /**\n     * description: \n     * param _id: \n     */\n    function endRent(string _id) public {\n        // \n        require(validAccounts[_id] && accountPool[_id].ownerAddress == msg.sender &&\n            (rentPool[_id].state == rentState.unconfirm || now - rentPool[_id].beginTime >= rentPool[_id].rentTime) ||\n            validAccounts[_id] && rentPool[_id].renterAddress == msg.sender);\n\n        // \n        rentPool[_id].state == rentState.end;\n        // \n        accountPool[_id].state = accountState.free;\n        // \n        accountPool[_id].password = \"random\"; \n    }\n\n    /**\n     * description: \n     * param _id: \n     * param _password: \n     * param _price: \n     * param _description: \n     */\n    function createAccount(string _id, string _password, uint _price, string _accountType, string _description) public {\n        require(!validAccounts[_id]); // \n        // \n        account memory newAccount = account({\n            ownerAddress: msg.sender,\n            id: _id,\n            password: _password,\n            price: _price,\n            accountType: _accountType,\n            description: _description,\n            state: accountState.free\n        });\n        accountList.push(newAccount);\n        // \n        accountPool[_id] = newAccount;\n        // \n        validAccounts[_id] = true;\n    }\n\n    /**\n     * description: \n     * param _id: \n     */\n    function removeAccount(string _id) public onlyOwner(_id) {\n        require(accountPool[_id].state == accountState.free);\n        // \n        delete accountPool[_id];\n        // false\n        validAccounts[_id] = false;\n    }\n\n    /**\n     * description: \n     * param _id: \n     * return accountState: \n     */\n    function getAccountState(string _id) public view returns (accountState) {\n        require(validAccounts[_id]); // \n        // \n        return accountPool[_id].state;\n    }\n\n}",
  "sourcePath": "E:\\\\\\myDapp\\contracts\\AccountRent.sol",
  "compiler": {
    "name": "solc",
    "version": "0.4.24+commit.e67f0147.Emscripten.clang"
  },
  "schemaVersion": "2.0.1",
  "updatedAt": "2018-12-29T05:01:29.093Z"
}