{
  "contractName": "AccountRent",
  "abi": [
    {
      "anonymous": false,
      "inputs": [
        {
          "indexed": false,
          "name": "addr",
          "type": "address"
        },
        {
          "indexed": false,
          "name": "message",
          "type": "string"
        }
      ],
      "name": "notice",
      "type": "event"
    },
    {
      "constant": false,
      "inputs": [
        {
          "name": "_id",
          "type": "string"
        },
        {
          "name": "_rentTimes",
          "type": "uint256"
        }
      ],
      "name": "createRent",
      "outputs": [],
      "payable": true,
      "stateMutability": "payable",
      "type": "function"
    },
    {
      "constant": false,
      "inputs": [
        {
          "name": "_id",
          "type": "string"
        }
      ],
      "name": "confirmRent",
      "outputs": [
        {
          "name": "",
          "type": "string"
        }
      ],
      "payable": false,
      "stateMutability": "nonpayable",
      "type": "function"
    },
    {
      "constant": false,
      "inputs": [
        {
          "name": "_id",
          "type": "string"
        }
      ],
      "name": "refuseRent",
      "outputs": [],
      "payable": false,
      "stateMutability": "nonpayable",
      "type": "function"
    },
    {
      "constant": false,
      "inputs": [
        {
          "name": "_id",
          "type": "string"
        },
        {
          "name": "_password",
          "type": "string"
        }
      ],
      "name": "changePassword",
      "outputs": [],
      "payable": false,
      "stateMutability": "nonpayable",
      "type": "function"
    },
    {
      "constant": true,
      "inputs": [
        {
          "name": "_id",
          "type": "string"
        }
      ],
      "name": "getPassword",
      "outputs": [
        {
          "name": "",
          "type": "string"
        }
      ],
      "payable": false,
      "stateMutability": "view",
      "type": "function"
    },
    {
      "constant": false,
      "inputs": [
        {
          "name": "_id",
          "type": "string"
        }
      ],
      "name": "endRent",
      "outputs": [],
      "payable": false,
      "stateMutability": "nonpayable",
      "type": "function"
    },
    {
      "constant": false,
      "inputs": [
        {
          "name": "_id",
          "type": "string"
        },
        {
          "name": "_password",
          "type": "string"
        },
        {
          "name": "_price",
          "type": "uint256"
        },
        {
          "name": "_description",
          "type": "string"
        }
      ],
      "name": "createAccount",
      "outputs": [],
      "payable": false,
      "stateMutability": "nonpayable",
      "type": "function"
    },
    {
      "constant": false,
      "inputs": [
        {
          "name": "_id",
          "type": "string"
        }
      ],
      "name": "removeAccount",
      "outputs": [],
      "payable": false,
      "stateMutability": "nonpayable",
      "type": "function"
    },
    {
      "constant": true,
      "inputs": [
        {
          "name": "_id",
          "type": "string"
        }
      ],
      "name": "getAccountState",
      "outputs": [
        {
          "name": "",
          "type": "uint8"
        }
      ],
      "payable": false,
      "stateMutability": "view",
      "type": "function"
    }
  ],
  "bytecode": "0x608060405234801561001057600080fd5b50612f7f806100206000396000f300608060405260043610610099576000357c0100000000000000000000000000000000000000000000000000000000900463ffffffff16806301b8c31c1461009e5780630420d56b146101805780632badd4b71461020b57806346038ddc146102715780634e5a7704146102da57806384a8366214610343578063864fdd29146103f2578063b3dfd1d0146104d4578063e92695a0146105d3575b600080fd5b3480156100aa57600080fd5b50610105600480360381019080803590602001908201803590602001908080601f016020809104026020016040519081016040528093929190818152602001838380828437820191505050505050919291929050505061063c565b6040518080602001828103825283818151815260200191508051906020019080838360005b8381101561014557808201518184015260208101905061012a565b50505050905090810190601f1680156101725780820380516001836020036101000a031916815260200191505b509250505060405180910390f35b34801561018c57600080fd5b506101e7600480360381019080803590602001908201803590602001908080601f0160208091040260200160405190810160405280939291908181526020018383808284378201915050505050509192919290505050610a92565b604051808260018111156101f757fe5b60ff16815260200191505060405180910390f35b61026f600480360381019080803590602001908201803590602001908080601f016020809104026020016040519081016040528093929190818152602001838380828437820191505050505050919291929080359060200190929190505050610b9b565b005b34801561027d57600080fd5b506102d8600480360381019080803590602001908201803590602001908080601f0160208091040260200160405190810160405280939291908181526020018383808284378201915050505050509192919290505050611021565b005b3480156102e657600080fd5b50610341600480360381019080803590602001908201803590602001908080601f016020809104026020016040519081016040528093929190818152602001838380828437820191505050505050919291929050505061144f565b005b34801561034f57600080fd5b506103f0600480360381019080803590602001908201803590602001908080601f0160208091040260200160405190810160405280939291908181526020018383808284378201915050505050509192919290803590602001908201803590602001908080601f0160208091040260200160405190810160405280939291908181526020018383808284378201915050505050509192919290505050611acf565b005b3480156103fe57600080fd5b50610459600480360381019080803590602001908201803590602001908080601f0160208091040260200160405190810160405280939291908181526020018383808284378201915050505050509192919290505050611e9c565b6040518080602001828103825283818151815260200191508051906020019080838360005b8381101561049957808201518184015260208101905061047e565b50505050905090810190601f1680156104c65780820380516001836020036101000a031916815260200191505b509250505060405180910390f35b3480156104e057600080fd5b506105d1600480360381019080803590602001908201803590602001908080601f0160208091040260200160405190810160405280939291908181526020018383808284378201915050505050509192919290803590602001908201803590602001908080601f016020809104026020016040519081016040528093929190818152602001838380828437820191505050505050919291929080359060200190929190803590602001908201803590602001908080601f01602080910402602001604051908101604052809392919081815260200183838082843782019150505050505091929192905050506124fe565b005b3480156105df57600080fd5b5061063a600480360381019080803590602001908201803590602001908080601f01602080910402602001604051908101604052809392919081815260200183838082843782019150505050505091929192905050506127a8565b005b60606002826040518082805190602001908083835b6020831015156106765780518252602082019150602081019050602083039250610651565b6001836020036101000a038019825116818451168082178552505050505050905001915050908152602001604051809103902060009054906101000a900460ff16801561081857503373ffffffffffffffffffffffffffffffffffffffff166000836040518082805190602001908083835b60208310151561070d57805182526020820191506020810190506020830392506106e8565b6001836020036101000a038019825116818451168082178552505050505050905001915050908152602001604051809103902060000160009054906101000a900473ffffffffffffffffffffffffffffffffffffffff1673ffffffffffffffffffffffffffffffffffffffff16148015610817575060028081111561078e57fe5b6001836040518082805190602001908083835b6020831015156107c657805182526020820191506020810190506020830392506107a1565b6001836020036101000a038019825116818451168082178552505050505050905001915050908152602001604051809103902060050160009054906101000a900460ff16600281111561081557fe5b145b5b8061097957503373ffffffffffffffffffffffffffffffffffffffff166001836040518082805190602001908083835b60208310151561086d5780518252602082019150602081019050602083039250610848565b6001836020036101000a038019825116818451168082178552505050505050905001915050908152602001604051809103902060000160009054906101000a900473ffffffffffffffffffffffffffffffffffffffff1673ffffffffffffffffffffffffffffffffffffffff161480156109785750600160028111156108ef57fe5b6001836040518082805190602001908083835b6020831015156109275780518252602082019150602081019050602083039250610902565b6001836020036101000a038019825116818451168082178552505050505050905001915050908152602001604051809103902060050160009054906101000a900460ff16600281111561097657fe5b145b5b151561098457600080fd5b6000826040518082805190602001908083835b6020831015156109bc5780518252602082019150602081019050602083039250610997565b6001836020036101000a03801982511681845116808217855250505050505090500191505090815260200160405180910390206002018054600181600116156101000203166002900480601f016020809104026020016040519081016040528092919081815260200182805460018160011615610100020316600290048015610a865780601f10610a5b57610100808354040283529160200191610a86565b820191906000526020600020905b815481529060010190602001808311610a6957829003601f168201915b50505050509050919050565b60006002826040518082805190602001908083835b602083101515610acc5780518252602082019150602081019050602083039250610aa7565b6001836020036101000a038019825116818451168082178552505050505050905001915050908152602001604051809103902060009054906101000a900460ff161515610b1857600080fd5b6000826040518082805190602001908083835b602083101515610b505780518252602082019150602081019050602083039250610b2b565b6001836020036101000a038019825116818451168082178552505050505050905001915050908152602001604051809103902060050160009054906101000a900460ff169050919050565b610ba3612d36565b60006001811115610bb057fe5b6000846040518082805190602001908083835b602083101515610be85780518252602082019150602081019050602083039250610bc3565b6001836020036101000a038019825116818451168082178552505050505050905001915050908152602001604051809103902060050160009054906101000a900460ff166001811115610c3757fe5b141515610c4357600080fd5b60c0604051908101604052803373ffffffffffffffffffffffffffffffffffffffff16815260200184815260200183815260200160008152602001670de0b6b3a7640000846000876040518082805190602001908083835b602083101515610cc05780518252602082019150602081019050602083039250610c9b565b6001836020036101000a0380198251168184511680821785525050505050509050019150509081526020016040518091039020600301540202815260200160006002811115610d0b57fe5b8152509050806080015134141515610d2257600080fd5b806001846040518082805190602001908083835b602083101515610d5b5780518252602082019150602081019050602083039250610d36565b6001836020036101000a038019825116818451168082178552505050505050905001915050908152602001604051809103902060008201518160000160006101000a81548173ffffffffffffffffffffffffffffffffffffffff021916908373ffffffffffffffffffffffffffffffffffffffff1602179055506020820151816001019080519060200190610df1929190612d8e565b5060408201518160020155606082015181600301556080820151816004015560a08201518160050160006101000a81548160ff02191690836002811115610e3457fe5b021790555090505060016000846040518082805190602001908083835b602083101515610e765780518252602082019150602081019050602083039250610e51565b6001836020036101000a038019825116818451168082178552505050505050905001915050908152602001604051809103902060050160006101000a81548160ff02191690836001811115610ec757fe5b02179055507fff9707690cfb78898f53d99d7ec9803862e46739e3e6af95284689f30c602ae46000846040518082805190602001908083835b602083101515610f255780518252602082019150602081019050602083039250610f00565b6001836020036101000a038019825116818451168082178552505050505050905001915050908152602001604051809103902060000160009054906101000a900473ffffffffffffffffffffffffffffffffffffffff16604051808273ffffffffffffffffffffffffffffffffffffffff1673ffffffffffffffffffffffffffffffffffffffff16815260200180602001828103825260258152602001807f536f6d656f6e65207265717569726520746f2072656e7420796f75722061636381526020017f6f756e740a0000000000000000000000000000000000000000000000000000008152506040019250505060405180910390a1505050565b806002816040518082805190602001908083835b60208310151561105a5780518252602082019150602081019050602083039250611035565b6001836020036101000a038019825116818451168082178552505050505050905001915050908152602001604051809103902060009054906101000a900460ff16801561116057503373ffffffffffffffffffffffffffffffffffffffff166000826040518082805190602001908083835b6020831015156110f157805182526020820191506020810190506020830392506110cc565b6001836020036101000a038019825116818451168082178552505050505050905001915050908152602001604051809103902060000160009054906101000a900473ffffffffffffffffffffffffffffffffffffffff1673ffffffffffffffffffffffffffffffffffffffff16145b1515611246576040517f08c379a00000000000000000000000000000000000000000000000000000000081526004018080602001828103825260648152602001807f506c6561736520636865636b207468652049442c206974207365656d7320746881526020017f61742074686973206163636f756e742069736e2774206578697374206f72207981526020017f6f7520617265206e6f7420746865206f776e6572206f6620746869732061636381526020017f6f756e740000000000000000000000000000000000000000000000000000000081525060800191505060405180910390fd5b6000600181111561125357fe5b6000836040518082805190602001908083835b60208310151561128b5780518252602082019150602081019050602083039250611266565b6001836020036101000a038019825116818451168082178552505050505050905001915050908152602001604051809103902060050160009054906101000a900460ff1660018111156112da57fe5b1415156112e657600080fd5b6000826040518082805190602001908083835b60208310151561131e57805182526020820191506020810190506020830392506112f9565b6001836020036101000a0380198251168184511680821785525050505050509050019150509081526020016040518091039020600080820160006101000a81549073ffffffffffffffffffffffffffffffffffffffff02191690556001820160006113899190612e0e565b6002820160006113999190612e0e565b60038201600090556004820160006113b19190612e0e565b6005820160006101000a81549060ff0219169055505060006002836040518082805190602001908083835b60208310151561140157805182526020820191506020810190506020830392506113dc565b6001836020036101000a038019825116818451168082178552505050505050905001915050908152602001604051809103902060006101000a81548160ff0219169083151502179055505050565b806002816040518082805190602001908083835b6020831015156114885780518252602082019150602081019050602083039250611463565b6001836020036101000a038019825116818451168082178552505050505050905001915050908152602001604051809103902060009054906101000a900460ff16801561158e57503373ffffffffffffffffffffffffffffffffffffffff166000826040518082805190602001908083835b60208310151561151f57805182526020820191506020810190506020830392506114fa565b6001836020036101000a038019825116818451168082178552505050505050905001915050908152602001604051809103902060000160009054906101000a900473ffffffffffffffffffffffffffffffffffffffff1673ffffffffffffffffffffffffffffffffffffffff16145b1515611674576040517f08c379a00000000000000000000000000000000000000000000000000000000081526004018080602001828103825260648152602001807f506c6561736520636865636b207468652049442c206974207365656d7320746881526020017f61742074686973206163636f756e742069736e2774206578697374206f72207981526020017f6f7520617265206e6f7420746865206f776e6572206f6620746869732061636381526020017f6f756e740000000000000000000000000000000000000000000000000000000081525060800191505060405180910390fd5b6000600281111561168157fe5b6001836040518082805190602001908083835b6020831015156116b95780518252602082019150602081019050602083039250611694565b6001836020036101000a038019825116818451168082178552505050505050905001915050908152602001604051809103902060050160009054906101000a900460ff16600281111561170857fe5b14151561171457600080fd5b60028081111561172057fe5b6001836040518082805190602001908083835b6020831015156117585780518252602082019150602081019050602083039250611733565b6001836020036101000a038019825116818451168082178552505050505050905001915050908152602001604051809103902060050160009054906101000a900460ff1660028111156117a757fe5b5050600080836040518082805190602001908083835b6020831015156117e257805182526020820191506020810190506020830392506117bd565b6001836020036101000a038019825116818451168082178552505050505050905001915050908152602001604051809103902060050160006101000a81548160ff0219169083600181111561183357fe5b02179055506001826040518082805190602001908083835b602083101515611870578051825260208201915060208101905060208303925061184b565b6001836020036101000a038019825116818451168082178552505050505050905001915050908152602001604051809103902060000160009054906101000a900473ffffffffffffffffffffffffffffffffffffffff1673ffffffffffffffffffffffffffffffffffffffff166108fc6001846040518082805190602001908083835b60208310151561191857805182526020820191506020810190506020830392506118f3565b6001836020036101000a0380198251168184511680821785525050505050509050019150509081526020016040518091039020600401549081150290604051600060405180830381858888f1935050505015801561197a573d6000803e3d6000fd5b507fff9707690cfb78898f53d99d7ec9803862e46739e3e6af95284689f30c602ae46001836040518082805190602001908083835b6020831015156119d457805182526020820191506020810190506020830392506119af565b6001836020036101000a038019825116818451168082178552505050505050905001915050908152602001604051809103902060000160009054906101000a900473ffffffffffffffffffffffffffffffffffffffff16604051808273ffffffffffffffffffffffffffffffffffffffff1673ffffffffffffffffffffffffffffffffffffffff16815260200180602001828103825260238152602001807f546865206f776e65722072656675736520796f75722072656e7420726571756581526020017f73740a00000000000000000000000000000000000000000000000000000000008152506040019250505060405180910390a15050565b6002826040518082805190602001908083835b602083101515611b075780518252602082019150602081019050602083039250611ae2565b6001836020036101000a038019825116818451168082178552505050505050905001915050908152602001604051809103902060009054906101000a900460ff168015611ca957503373ffffffffffffffffffffffffffffffffffffffff166000836040518082805190602001908083835b602083101515611b9e5780518252602082019150602081019050602083039250611b79565b6001836020036101000a038019825116818451168082178552505050505050905001915050908152602001604051809103902060000160009054906101000a900473ffffffffffffffffffffffffffffffffffffffff1673ffffffffffffffffffffffffffffffffffffffff16148015611ca85750600280811115611c1f57fe5b6001836040518082805190602001908083835b602083101515611c575780518252602082019150602081019050602083039250611c32565b6001836020036101000a038019825116818451168082178552505050505050905001915050908152602001604051809103902060050160009054906101000a900460ff166002811115611ca657fe5b145b5b80611e0a57503373ffffffffffffffffffffffffffffffffffffffff166001836040518082805190602001908083835b602083101515611cfe5780518252602082019150602081019050602083039250611cd9565b6001836020036101000a038019825116818451168082178552505050505050905001915050908152602001604051809103902060000160009054906101000a900473ffffffffffffffffffffffffffffffffffffffff1673ffffffffffffffffffffffffffffffffffffffff16148015611e09575060016002811115611d8057fe5b6001836040518082805190602001908083835b602083101515611db85780518252602082019150602081019050602083039250611d93565b6001836020036101000a038019825116818451168082178552505050505050905001915050908152602001604051809103902060050160009054906101000a900460ff166002811115611e0757fe5b145b5b1515611e1557600080fd5b806000836040518082805190602001908083835b602083101515611e4e5780518252602082019150602081019050602083039250611e29565b6001836020036101000a03801982511681845116808217855250505050505090500191505090815260200160405180910390206002019080519060200190611e97929190612e56565b505050565b6060816002816040518082805190602001908083835b602083101515611ed75780518252602082019150602081019050602083039250611eb2565b6001836020036101000a038019825116818451168082178552505050505050905001915050908152602001604051809103902060009054906101000a900460ff168015611fdd57503373ffffffffffffffffffffffffffffffffffffffff166000826040518082805190602001908083835b602083101515611f6e5780518252602082019150602081019050602083039250611f49565b6001836020036101000a038019825116818451168082178552505050505050905001915050908152602001604051809103902060000160009054906101000a900473ffffffffffffffffffffffffffffffffffffffff1673ffffffffffffffffffffffffffffffffffffffff16145b15156120c3576040517f08c379a00000000000000000000000000000000000000000000000000000000081526004018080602001828103825260648152602001807f506c6561736520636865636b207468652049442c206974207365656d7320746881526020017f61742074686973206163636f756e742069736e2774206578697374206f72207981526020017f6f7520617265206e6f7420746865206f776e6572206f6620746869732061636381526020017f6f756e740000000000000000000000000000000000000000000000000000000081525060800191505060405180910390fd5b600060028111156120d057fe5b6001846040518082805190602001908083835b60208310151561210857805182526020820191506020810190506020830392506120e3565b6001836020036101000a038019825116818451168082178552505050505050905001915050908152602001604051809103902060050160009054906101000a900460ff16600281111561215757fe5b14151561216357600080fd5b6000836040518082805190602001908083835b60208310151561219b5780518252602082019150602081019050602083039250612176565b6001836020036101000a038019825116818451168082178552505050505050905001915050908152602001604051809103902060000160009054906101000a900473ffffffffffffffffffffffffffffffffffffffff1673ffffffffffffffffffffffffffffffffffffffff166108fc6001856040518082805190602001908083835b602083101515612243578051825260208201915060208101905060208303925061221e565b6001836020036101000a0380198251168184511680821785525050505050509050019150509081526020016040518091039020600401549081150290604051600060405180830381858888f193505050501580156122a5573d6000803e3d6000fd5b50600180846040518082805190602001908083835b6020831015156122df57805182526020820191506020810190506020830392506122ba565b6001836020036101000a038019825116818451168082178552505050505050905001915050908152602001604051809103902060050160006101000a81548160ff0219169083600281111561233057fe5b0217905550426001846040518082805190602001908083835b60208310151561236e5780518252602082019150602081019050602083039250612349565b6001836020036101000a0380198251168184511680821785525050505050509050019150509081526020016040518091039020600301819055507fff9707690cfb78898f53d99d7ec9803862e46739e3e6af95284689f30c602ae46001846040518082805190602001908083835b60208310151561240157805182526020820191506020810190506020830392506123dc565b6001836020036101000a038019825116818451168082178552505050505050905001915050908152602001604051809103902060000160009054906101000a900473ffffffffffffffffffffffffffffffffffffffff16604051808273ffffffffffffffffffffffffffffffffffffffff1673ffffffffffffffffffffffffffffffffffffffff16815260200180602001828103825260318152602001807f52656e7420737563636573732c20706c65617365206368616e6765207061737381526020017f776f726420627920796f757273656c660a0000000000000000000000000000008152506040019250505060405180910390a150919050565b612506612ed6565b6002856040518082805190602001908083835b60208310151561253e5780518252602082019150602081019050602083039250612519565b6001836020036101000a038019825116818451168082178552505050505050905001915050908152602001604051809103902060009054906101000a900460ff1615151561258b57600080fd5b60c0604051908101604052803373ffffffffffffffffffffffffffffffffffffffff168152602001868152602001858152602001848152602001838152602001600060018111156125d857fe5b8152509050806000866040518082805190602001908083835b60208310151561261657805182526020820191506020810190506020830392506125f1565b6001836020036101000a038019825116818451168082178552505050505050905001915050908152602001604051809103902060008201518160000160006101000a81548173ffffffffffffffffffffffffffffffffffffffff021916908373ffffffffffffffffffffffffffffffffffffffff16021790555060208201518160010190805190602001906126ac929190612d8e565b5060408201518160020190805190602001906126c9929190612d8e565b506060820151816003015560808201518160040190805190602001906126f0929190612d8e565b5060a08201518160050160006101000a81548160ff0219169083600181111561271557fe5b021790555090505060016002866040518082805190602001908083835b6020831015156127575780518252602082019150602081019050602083039250612732565b6001836020036101000a038019825116818451168082178552505050505050905001915050908152602001604051809103902060006101000a81548160ff0219169083151502179055505050505050565b806002816040518082805190602001908083835b6020831015156127e157805182526020820191506020810190506020830392506127bc565b6001836020036101000a038019825116818451168082178552505050505050905001915050908152602001604051809103902060009054906101000a900460ff1680156128e757503373ffffffffffffffffffffffffffffffffffffffff166000826040518082805190602001908083835b6020831015156128785780518252602082019150602081019050602083039250612853565b6001836020036101000a038019825116818451168082178552505050505050905001915050908152602001604051809103902060000160009054906101000a900473ffffffffffffffffffffffffffffffffffffffff1673ffffffffffffffffffffffffffffffffffffffff16145b15156129cd576040517f08c379a00000000000000000000000000000000000000000000000000000000081526004018080602001828103825260648152602001807f506c6561736520636865636b207468652049442c206974207365656d7320746881526020017f61742074686973206163636f756e742069736e2774206578697374206f72207981526020017f6f7520617265206e6f7420746865206f776e6572206f6620746869732061636381526020017f6f756e740000000000000000000000000000000000000000000000000000000081525060800191505060405180910390fd5b600060028111156129da57fe5b6001836040518082805190602001908083835b602083101515612a1257805182526020820191506020810190506020830392506129ed565b6001836020036101000a038019825116818451168082178552505050505050905001915050908152602001604051809103902060050160009054906101000a900460ff166002811115612a6157fe5b1480612b4b57506001826040518082805190602001908083835b602083101515612aa05780518252602082019150602081019050602083039250612a7b565b6001836020036101000a0380198251168184511680821785525050505050509050019150509081526020016040518091039020600201546001836040518082805190602001908083835b602083101515612b0f5780518252602082019150602081019050602083039250612aea565b6001836020036101000a038019825116818451168082178552505050505050905001915050908152602001604051809103902060030154420310155b1515612b5657600080fd5b600280811115612b6257fe5b6001836040518082805190602001908083835b602083101515612b9a5780518252602082019150602081019050602083039250612b75565b6001836020036101000a038019825116818451168082178552505050505050905001915050908152602001604051809103902060050160009054906101000a900460ff166002811115612be957fe5b5050600080836040518082805190602001908083835b602083101515612c245780518252602082019150602081019050602083039250612bff565b6001836020036101000a038019825116818451168082178552505050505050905001915050908152602001604051809103902060050160006101000a81548160ff02191690836001811115612c7557fe5b02179055506040805190810160405280600681526020017f72616e646f6d00000000000000000000000000000000000000000000000000008152506000836040518082805190602001908083835b602083101515612ce85780518252602082019150602081019050602083039250612cc3565b6001836020036101000a03801982511681845116808217855250505050505090500191505090815260200160405180910390206002019080519060200190612d31929190612e56565b505050565b60c060405190810160405280600073ffffffffffffffffffffffffffffffffffffffff1681526020016060815260200160008152602001600081526020016000815260200160006002811115612d8857fe5b81525090565b828054600181600116156101000203166002900490600052602060002090601f016020900481019282601f10612dcf57805160ff1916838001178555612dfd565b82800160010185558215612dfd579182015b82811115612dfc578251825591602001919060010190612de1565b5b509050612e0a9190612f2e565b5090565b50805460018160011615610100020316600290046000825580601f10612e345750612e53565b601f016020900490600052602060002090810190612e529190612f2e565b5b50565b828054600181600116156101000203166002900490600052602060002090601f016020900481019282601f10612e9757805160ff1916838001178555612ec5565b82800160010185558215612ec5579182015b82811115612ec4578251825591602001919060010190612ea9565b5b509050612ed29190612f2e565b5090565b60c060405190810160405280600073ffffffffffffffffffffffffffffffffffffffff1681526020016060815260200160608152602001600081526020016060815260200160006001811115612f2857fe5b81525090565b612f5091905b80821115612f4c576000816000905550600101612f34565b5090565b905600a165627a7a7230582068bcb9c3a82d05c91e5db0b2b0dfdd1b204c18ec73c43d31cf07f703e0b5197f0029",
  "source": "pragma solidity ^0.4.18;\n\ncontract AccountRent {\n    // free  occupy \n    enum accountState {free, occupy}\n\n    // unconfirmconfirmend\n    enum rentState {unconfirm, confirm, end}\n\n    struct rent {\n        address renterAddress;  // \n        string id;              // \n        uint rentTimes;         // \n        uint beginTime;         // \n        uint cost;              // \n        rentState state;        // \n    }\n\n    struct account {\n        address ownerAddress;   // \n        string id;              // \n        string password;        // \n        uint price;             // \n        string description;     // \n        accountState state;     // \n    }\n\n    // \n    mapping(string => account) accountPool;\n\n    // \n    mapping(string => rent) rentPool;\n\n    // \n    mapping(string => bool) validAccounts;\n\n    // \n    event notice(address addr, string message);\n\n    // \n    modifier onlyOwner(string _id) {\n        require(validAccounts[_id] && accountPool[_id].ownerAddress == msg.sender,\n            \"Please check the ID, it seems that this account isn't exist or you are not the owner of this account\");\n        _;\n    }\n\n    // \n    modifier onlyRenter(string _id) {\n        require(validAccounts[_id] && rentPool[_id].renterAddress == msg.sender,\n            \"Please check the ID, it seems that this account isn't exist or you are not the renter of this account\");\n        _;\n    }\n\n    /**\n     * description: \n     * param _id: \n     * param _rentTimes: //\n     */\n    function createRent(string _id, uint _rentTimes) public payable {\n        // \n        require(accountPool[_id].state == accountState.free);\n        // \n        rent memory newRent = rent({\n            renterAddress: msg.sender,\n            id: _id,\n            rentTimes: _rentTimes,\n            state: rentState.unconfirm,\n            beginTime: 0,\n            cost: accountPool[_id].price * _rentTimes * 1 ether\n        });\n        // , \n        require(msg.value == newRent.cost); \n        // \n        rentPool[_id] = newRent;\n        // \n        accountPool[_id].state = accountState.occupy;\n        // \n        emit notice(accountPool[_id].ownerAddress, \"Someone require to rent your account\\n\");\n    }\n\n    /**\n     * description: \n     * param _id\n     */\n    function confirmRent(string _id) public onlyOwner(_id) returns (string) {\n        // \n        require(rentPool[_id].state == rentState.unconfirm); \n\n        accountPool[_id].ownerAddress.transfer(rentPool[_id].cost);\n        rentPool[_id].state = rentState.confirm;\n        rentPool[_id].beginTime = now;\n        // \n        emit notice(rentPool[_id].renterAddress, \"Rent success, please change password by yourself\\n\");\n    }\n\n    /**\n     * description: \n     * param _id: \n     */\n    function refuseRent(string _id) public onlyOwner(_id) {\n        // \n        require(rentPool[_id].state == rentState.unconfirm); \n\n        // \n        rentPool[_id].state == rentState.end;\n        accountPool[_id].state = accountState.free;\n        // \n        rentPool[_id].renterAddress.transfer(rentPool[_id].cost);\n        // \n        emit notice(rentPool[_id].renterAddress, \"The owner refuse your rent request\\n\");\n    }\n\n    /**\n     * description: \n     * param _id: \n     * param _password: \n     */\n    function changePassword(string _id, string _password) public {\n        // \n        // \n        //          \n        require(validAccounts[_id] && \n            (accountPool[_id].ownerAddress == msg.sender && rentPool[_id].state == rentState.end) ||\n            (rentPool[_id].renterAddress == msg.sender && rentPool[_id].state == rentState.confirm));\n        accountPool[_id].password = _password; \n    }\n\n    /**\n     * description: \n     * param _id: \n     */\n    function getPassword(string _id) public view returns (string) {\n        // \n        // \n        //          \n        require(validAccounts[_id] && \n            (accountPool[_id].ownerAddress == msg.sender && rentPool[_id].state == rentState.end) ||\n            (rentPool[_id].renterAddress == msg.sender && rentPool[_id].state == rentState.confirm));\n        return accountPool[_id].password;\n    }\n\n    /**\n     * description: \n     * param _id: \n     */\n    function endRent(string _id) public onlyOwner(_id) {\n        // \n        require(rentPool[_id].state == rentState.unconfirm ||\n            now - rentPool[_id].beginTime >= rentPool[_id].rentTimes);\n\n        // \n        rentPool[_id].state == rentState.end;\n        // \n        accountPool[_id].state = accountState.free;\n        // \n        accountPool[_id].password = \"random\"; \n    }\n\n    /**\n     * description: \n     * param _id: \n     * param _password: \n     * param _price: \n     * param _description: \n     */\n    function createAccount(string _id, string _password, uint _price, string _description) public {\n        require(!validAccounts[_id]); // \n        // \n        account memory newAccount = account({\n            ownerAddress: msg.sender,\n            id: _id,\n            password: _password,\n            price: _price,\n            description: _description,\n            state: accountState.free\n        });\n        // \n        accountPool[_id] = newAccount;\n        // \n        validAccounts[_id] = true;\n    }\n\n    /**\n     * description: \n     * param _id: \n     */\n    function removeAccount(string _id) public onlyOwner(_id) {\n        require(accountPool[_id].state == accountState.free);\n        // \n        delete accountPool[_id];\n        // false\n        validAccounts[_id] = false;\n    }\n\n    /**\n     * description: \n     * param _id: \n     * return accountState: \n     */\n    function getAccountState(string _id) public view returns (accountState) {\n        require(validAccounts[_id]); // \n        // \n        return accountPool[_id].state;\n    }\n\n}",
  "sourcePath": "C:\\Users\\admin\\Desktop\\test\\contracts\\AccountRent.sol",
  "compiler": {
    "name": "solc",
    "version": "0.4.24+commit.e67f0147.Emscripten.clang"
  },
  "schemaVersion": "2.0.1",
  "updatedAt": "2018-12-26T14:30:52.630Z"
}