{
  "contractName": "AccountRent",
  "abi": [
    {
      "anonymous": false,
      "inputs": [
        {
          "indexed": false,
          "name": "addr",
          "type": "address"
        },
        {
          "indexed": false,
          "name": "message",
          "type": "string"
        }
      ],
      "name": "notice",
      "type": "event"
    },
    {
      "constant": true,
      "inputs": [
        {
          "name": "_username",
          "type": "string"
        }
      ],
      "name": "checkUserValid",
      "outputs": [
        {
          "name": "",
          "type": "bool"
        }
      ],
      "payable": false,
      "stateMutability": "view",
      "type": "function"
    },
    {
      "constant": false,
      "inputs": [
        {
          "name": "_username",
          "type": "string"
        },
        {
          "name": "_password",
          "type": "string"
        },
        {
          "name": "_userAddress",
          "type": "address"
        }
      ],
      "name": "regist",
      "outputs": [],
      "payable": false,
      "stateMutability": "nonpayable",
      "type": "function"
    },
    {
      "constant": false,
      "inputs": [
        {
          "name": "_username",
          "type": "string"
        }
      ],
      "name": "loginCheck",
      "outputs": [
        {
          "name": "",
          "type": "string"
        }
      ],
      "payable": false,
      "stateMutability": "nonpayable",
      "type": "function"
    },
    {
      "constant": false,
      "inputs": [
        {
          "name": "_id",
          "type": "string"
        },
        {
          "name": "_rentTimes",
          "type": "uint256"
        }
      ],
      "name": "createRent",
      "outputs": [],
      "payable": true,
      "stateMutability": "payable",
      "type": "function"
    },
    {
      "constant": false,
      "inputs": [
        {
          "name": "_id",
          "type": "string"
        }
      ],
      "name": "confirmRent",
      "outputs": [
        {
          "name": "",
          "type": "string"
        }
      ],
      "payable": false,
      "stateMutability": "nonpayable",
      "type": "function"
    },
    {
      "constant": false,
      "inputs": [
        {
          "name": "_id",
          "type": "string"
        }
      ],
      "name": "refuseRent",
      "outputs": [],
      "payable": false,
      "stateMutability": "nonpayable",
      "type": "function"
    },
    {
      "constant": false,
      "inputs": [
        {
          "name": "_id",
          "type": "string"
        },
        {
          "name": "_password",
          "type": "string"
        }
      ],
      "name": "changePassword",
      "outputs": [],
      "payable": false,
      "stateMutability": "nonpayable",
      "type": "function"
    },
    {
      "constant": true,
      "inputs": [
        {
          "name": "_id",
          "type": "string"
        }
      ],
      "name": "getPassword",
      "outputs": [
        {
          "name": "",
          "type": "string"
        }
      ],
      "payable": false,
      "stateMutability": "view",
      "type": "function"
    },
    {
      "constant": false,
      "inputs": [
        {
          "name": "_id",
          "type": "string"
        }
      ],
      "name": "endRent",
      "outputs": [],
      "payable": false,
      "stateMutability": "nonpayable",
      "type": "function"
    },
    {
      "constant": false,
      "inputs": [
        {
          "name": "_id",
          "type": "string"
        },
        {
          "name": "_password",
          "type": "string"
        },
        {
          "name": "_price",
          "type": "uint256"
        },
        {
          "name": "_accountType",
          "type": "string"
        },
        {
          "name": "_description",
          "type": "string"
        }
      ],
      "name": "createAccount",
      "outputs": [],
      "payable": false,
      "stateMutability": "nonpayable",
      "type": "function"
    },
    {
      "constant": false,
      "inputs": [
        {
          "name": "_id",
          "type": "string"
        }
      ],
      "name": "removeAccount",
      "outputs": [],
      "payable": false,
      "stateMutability": "nonpayable",
      "type": "function"
    },
    {
      "constant": true,
      "inputs": [
        {
          "name": "_id",
          "type": "string"
        }
      ],
      "name": "getAccountState",
      "outputs": [
        {
          "name": "",
          "type": "uint8"
        }
      ],
      "payable": false,
      "stateMutability": "view",
      "type": "function"
    }
  ],
  "bytecode": "0x608060405234801561001057600080fd5b5061361d806100206000396000f3006080604052600436106100ba576000357c0100000000000000000000000000000000000000000000000000000000900463ffffffff16806301b8c31c146100bf5780630420d56b146101a15780632badd4b71461022c57806346038ddc146102925780634e5a7704146102fb57806371ea9a891461036457806374c6855d1461043357806384a8366214610515578063864fdd29146105c45780639cf08314146106a6578063ac346705146107eb578063e92695a01461086c575b600080fd5b3480156100cb57600080fd5b50610126600480360381019080803590602001908201803590602001908080601f01602080910402602001604051908101604052809392919081815260200183838082843782019150505050505091929192905050506108d5565b6040518080602001828103825283818151815260200191508051906020019080838360005b8381101561016657808201518184015260208101905061014b565b50505050905090810190601f1680156101935780820380516001836020036101000a031916815260200191505b509250505060405180910390f35b3480156101ad57600080fd5b50610208600480360381019080803590602001908201803590602001908080601f0160208091040260200160405190810160405280939291908181526020018383808284378201915050505050509192919290505050610d2b565b6040518082600181111561021857fe5b60ff16815260200191505060405180910390f35b610290600480360381019080803590602001908201803590602001908080601f016020809104026020016040519081016040528093929190818152602001838380828437820191505050505050919291929080359060200190929190505050610e34565b005b34801561029e57600080fd5b506102f9600480360381019080803590602001908201803590602001908080601f01602080910402602001604051908101604052809392919081815260200183838082843782019150505050505091929192905050506112ba565b005b34801561030757600080fd5b50610362600480360381019080803590602001908201803590602001908080601f01602080910402602001604051908101604052809392919081815260200183838082843782019150505050505091929192905050506116f8565b005b34801561037057600080fd5b50610431600480360381019080803590602001908201803590602001908080601f0160208091040260200160405190810160405280939291908181526020018383808284378201915050505050509192919290803590602001908201803590602001908080601f0160208091040260200160405190810160405280939291908181526020018383808284378201915050505050509192919290803573ffffffffffffffffffffffffffffffffffffffff169060200190929190505050611d79565b005b34801561043f57600080fd5b5061049a600480360381019080803590602001908201803590602001908080601f0160208091040260200160405190810160405280939291908181526020018383808284378201915050505050509192919290505050611fb1565b6040518080602001828103825283818151815260200191508051906020019080838360005b838110156104da5780820151818401526020810190506104bf565b50505050905090810190601f1680156105075780820380516001836020036101000a031916815260200191505b509250505060405180910390f35b34801561052157600080fd5b506105c2600480360381019080803590602001908201803590602001908080601f0160208091040260200160405190810160405280939291908181526020018383808284378201915050505050509192919290803590602001908201803590602001908080601f01602080910402602001604051908101604052809392919081815260200183838082843782019150505050505091929192905050506120be565b005b3480156105d057600080fd5b5061062b600480360381019080803590602001908201803590602001908080601f016020809104026020016040519081016040528093929190818152602001838380828437820191505050505050919291929050505061248b565b6040518080602001828103825283818151815260200191508051906020019080838360005b8381101561066b578082015181840152602081019050610650565b50505050905090810190601f1680156106985780820380516001836020036101000a031916815260200191505b509250505060405180910390f35b3480156106b257600080fd5b506107e9600480360381019080803590602001908201803590602001908080601f0160208091040260200160405190810160405280939291908181526020018383808284378201915050505050509192919290803590602001908201803590602001908080601f016020809104026020016040519081016040528093929190818152602001838380828437820191505050505050919291929080359060200190929190803590602001908201803590602001908080601f0160208091040260200160405190810160405280939291908181526020018383808284378201915050505050509192919290803590602001908201803590602001908080601f0160208091040260200160405190810160405280939291908181526020018383808284378201915050505050509192919290505050612aee565b005b3480156107f757600080fd5b50610852600480360381019080803590602001908201803590602001908080601f0160208091040260200160405190810160405280939291908181526020018383808284378201915050505050509192919290505050612dbc565b604051808215151515815260200191505060405180910390f35b34801561087857600080fd5b506108d3600480360381019080803590602001908201803590602001908080601f0160208091040260200160405190810160405280939291908181526020018383808284378201915050505050509192919290505050612e3e565b005b60606006826040518082805190602001908083835b60208310151561090f57805182526020820191506020810190506020830392506108ea565b6001836020036101000a038019825116818451168082178552505050505050905001915050908152602001604051809103902060009054906101000a900460ff168015610ab157503373ffffffffffffffffffffffffffffffffffffffff166004836040518082805190602001908083835b6020831015156109a65780518252602082019150602081019050602083039250610981565b6001836020036101000a038019825116818451168082178552505050505050905001915050908152602001604051809103902060000160009054906101000a900473ffffffffffffffffffffffffffffffffffffffff1673ffffffffffffffffffffffffffffffffffffffff16148015610ab05750600280811115610a2757fe5b6005836040518082805190602001908083835b602083101515610a5f5780518252602082019150602081019050602083039250610a3a565b6001836020036101000a038019825116818451168082178552505050505050905001915050908152602001604051809103902060050160009054906101000a900460ff166002811115610aae57fe5b145b5b80610c1257503373ffffffffffffffffffffffffffffffffffffffff166005836040518082805190602001908083835b602083101515610b065780518252602082019150602081019050602083039250610ae1565b6001836020036101000a038019825116818451168082178552505050505050905001915050908152602001604051809103902060000160009054906101000a900473ffffffffffffffffffffffffffffffffffffffff1673ffffffffffffffffffffffffffffffffffffffff16148015610c11575060016002811115610b8857fe5b6005836040518082805190602001908083835b602083101515610bc05780518252602082019150602081019050602083039250610b9b565b6001836020036101000a038019825116818451168082178552505050505050905001915050908152602001604051809103902060050160009054906101000a900460ff166002811115610c0f57fe5b145b5b1515610c1d57600080fd5b6004826040518082805190602001908083835b602083101515610c555780518252602082019150602081019050602083039250610c30565b6001836020036101000a03801982511681845116808217855250505050505090500191505090815260200160405180910390206002018054600181600116156101000203166002900480601f016020809104026020016040519081016040528092919081815260200182805460018160011615610100020316600290048015610d1f5780601f10610cf457610100808354040283529160200191610d1f565b820191906000526020600020905b815481529060010190602001808311610d0257829003601f168201915b50505050509050919050565b60006006826040518082805190602001908083835b602083101515610d655780518252602082019150602081019050602083039250610d40565b6001836020036101000a038019825116818451168082178552505050505050905001915050908152602001604051809103902060009054906101000a900460ff161515610db157600080fd5b6004826040518082805190602001908083835b602083101515610de95780518252602082019150602081019050602083039250610dc4565b6001836020036101000a038019825116818451168082178552505050505050905001915050908152602001604051809103902060060160009054906101000a900460ff169050919050565b610e3c6133cd565b60006001811115610e4957fe5b6004846040518082805190602001908083835b602083101515610e815780518252602082019150602081019050602083039250610e5c565b6001836020036101000a038019825116818451168082178552505050505050905001915050908152602001604051809103902060060160009054906101000a900460ff166001811115610ed057fe5b141515610edc57600080fd5b60c0604051908101604052803373ffffffffffffffffffffffffffffffffffffffff16815260200184815260200183815260200160008152602001670de0b6b3a7640000846004876040518082805190602001908083835b602083101515610f595780518252602082019150602081019050602083039250610f34565b6001836020036101000a0380198251168184511680821785525050505050509050019150509081526020016040518091039020600301540202815260200160006002811115610fa457fe5b8152509050806080015134141515610fbb57600080fd5b806005846040518082805190602001908083835b602083101515610ff45780518252602082019150602081019050602083039250610fcf565b6001836020036101000a038019825116818451168082178552505050505050905001915050908152602001604051809103902060008201518160000160006101000a81548173ffffffffffffffffffffffffffffffffffffffff021916908373ffffffffffffffffffffffffffffffffffffffff160217905550602082015181600101908051906020019061108a929190613425565b5060408201518160020155606082015181600301556080820151816004015560a08201518160050160006101000a81548160ff021916908360028111156110cd57fe5b021790555090505060016004846040518082805190602001908083835b60208310151561110f57805182526020820191506020810190506020830392506110ea565b6001836020036101000a038019825116818451168082178552505050505050905001915050908152602001604051809103902060060160006101000a81548160ff0219169083600181111561116057fe5b02179055507fff9707690cfb78898f53d99d7ec9803862e46739e3e6af95284689f30c602ae46004846040518082805190602001908083835b6020831015156111be5780518252602082019150602081019050602083039250611199565b6001836020036101000a038019825116818451168082178552505050505050905001915050908152602001604051809103902060000160009054906101000a900473ffffffffffffffffffffffffffffffffffffffff16604051808273ffffffffffffffffffffffffffffffffffffffff1673ffffffffffffffffffffffffffffffffffffffff16815260200180602001828103825260258152602001807f536f6d656f6e65207265717569726520746f2072656e7420796f75722061636381526020017f6f756e740a0000000000000000000000000000000000000000000000000000008152506040019250505060405180910390a1505050565b806006816040518082805190602001908083835b6020831015156112f357805182526020820191506020810190506020830392506112ce565b6001836020036101000a038019825116818451168082178552505050505050905001915050908152602001604051809103902060009054906101000a900460ff1680156113f957503373ffffffffffffffffffffffffffffffffffffffff166004826040518082805190602001908083835b60208310151561138a5780518252602082019150602081019050602083039250611365565b6001836020036101000a038019825116818451168082178552505050505050905001915050908152602001604051809103902060000160009054906101000a900473ffffffffffffffffffffffffffffffffffffffff1673ffffffffffffffffffffffffffffffffffffffff16145b15156114df576040517f08c379a00000000000000000000000000000000000000000000000000000000081526004018080602001828103825260648152602001807f506c6561736520636865636b207468652049442c206974207365656d7320746881526020017f61742074686973206163636f756e742069736e2774206578697374206f72207981526020017f6f7520617265206e6f7420746865206f776e6572206f6620746869732061636381526020017f6f756e740000000000000000000000000000000000000000000000000000000081525060800191505060405180910390fd5b600060018111156114ec57fe5b6004836040518082805190602001908083835b60208310151561152457805182526020820191506020810190506020830392506114ff565b6001836020036101000a038019825116818451168082178552505050505050905001915050908152602001604051809103902060060160009054906101000a900460ff16600181111561157357fe5b14151561157f57600080fd5b6004826040518082805190602001908083835b6020831015156115b75780518252602082019150602081019050602083039250611592565b6001836020036101000a0380198251168184511680821785525050505050509050019150509081526020016040518091039020600080820160006101000a81549073ffffffffffffffffffffffffffffffffffffffff021916905560018201600061162291906134a5565b60028201600061163291906134a5565b600382016000905560048201600061164a91906134a5565b60058201600061165a91906134a5565b6006820160006101000a81549060ff0219169055505060006006836040518082805190602001908083835b6020831015156116aa5780518252602082019150602081019050602083039250611685565b6001836020036101000a038019825116818451168082178552505050505050905001915050908152602001604051809103902060006101000a81548160ff0219169083151502179055505050565b806006816040518082805190602001908083835b602083101515611731578051825260208201915060208101905060208303925061170c565b6001836020036101000a038019825116818451168082178552505050505050905001915050908152602001604051809103902060009054906101000a900460ff16801561183757503373ffffffffffffffffffffffffffffffffffffffff166004826040518082805190602001908083835b6020831015156117c857805182526020820191506020810190506020830392506117a3565b6001836020036101000a038019825116818451168082178552505050505050905001915050908152602001604051809103902060000160009054906101000a900473ffffffffffffffffffffffffffffffffffffffff1673ffffffffffffffffffffffffffffffffffffffff16145b151561191d576040517f08c379a00000000000000000000000000000000000000000000000000000000081526004018080602001828103825260648152602001807f506c6561736520636865636b207468652049442c206974207365656d7320746881526020017f61742074686973206163636f756e742069736e2774206578697374206f72207981526020017f6f7520617265206e6f7420746865206f776e6572206f6620746869732061636381526020017f6f756e740000000000000000000000000000000000000000000000000000000081525060800191505060405180910390fd5b6000600281111561192a57fe5b6005836040518082805190602001908083835b602083101515611962578051825260208201915060208101905060208303925061193d565b6001836020036101000a038019825116818451168082178552505050505050905001915050908152602001604051809103902060050160009054906101000a900460ff1660028111156119b157fe5b1415156119bd57600080fd5b6002808111156119c957fe5b6005836040518082805190602001908083835b602083101515611a0157805182526020820191506020810190506020830392506119dc565b6001836020036101000a038019825116818451168082178552505050505050905001915050908152602001604051809103902060050160009054906101000a900460ff166002811115611a5057fe5b505060006004836040518082805190602001908083835b602083101515611a8c5780518252602082019150602081019050602083039250611a67565b6001836020036101000a038019825116818451168082178552505050505050905001915050908152602001604051809103902060060160006101000a81548160ff02191690836001811115611add57fe5b02179055506005826040518082805190602001908083835b602083101515611b1a5780518252602082019150602081019050602083039250611af5565b6001836020036101000a038019825116818451168082178552505050505050905001915050908152602001604051809103902060000160009054906101000a900473ffffffffffffffffffffffffffffffffffffffff1673ffffffffffffffffffffffffffffffffffffffff166108fc6005846040518082805190602001908083835b602083101515611bc25780518252602082019150602081019050602083039250611b9d565b6001836020036101000a0380198251168184511680821785525050505050509050019150509081526020016040518091039020600401549081150290604051600060405180830381858888f19350505050158015611c24573d6000803e3d6000fd5b507fff9707690cfb78898f53d99d7ec9803862e46739e3e6af95284689f30c602ae46005836040518082805190602001908083835b602083101515611c7e5780518252602082019150602081019050602083039250611c59565b6001836020036101000a038019825116818451168082178552505050505050905001915050908152602001604051809103902060000160009054906101000a900473ffffffffffffffffffffffffffffffffffffffff16604051808273ffffffffffffffffffffffffffffffffffffffff1673ffffffffffffffffffffffffffffffffffffffff16815260200180602001828103825260238152602001807f546865206f776e65722072656675736520796f75722072656e7420726571756581526020017f73740a00000000000000000000000000000000000000000000000000000000008152506040019250505060405180910390a15050565b600015156001846040518082805190602001908083835b602083101515611db55780518252602082019150602081019050602083039250611d90565b6001836020036101000a038019825116818451168082178552505050505050905001915050908152602001604051809103902060009054906101000a900460ff1615151415611fac57600180846040518082805190602001908083835b602083101515611e375780518252602082019150602081019050602083039250611e12565b6001836020036101000a038019825116818451168082178552505050505050905001915050908152602001604051809103902060006101000a81548160ff021916908315150217905550816003846040518082805190602001908083835b602083101515611eba5780518252602082019150602081019050602083039250611e95565b6001836020036101000a03801982511681845116808217855250505050505090500191505090815260200160405180910390209080519060200190611f009291906134ed565b50806002846040518082805190602001908083835b602083101515611f3a5780518252602082019150602081019050602083039250611f15565b6001836020036101000a038019825116818451168082178552505050505050905001915050908152602001604051809103902060006101000a81548173ffffffffffffffffffffffffffffffffffffffff021916908373ffffffffffffffffffffffffffffffffffffffff1602179055505b505050565b60606003826040518082805190602001908083835b602083101515611feb5780518252602082019150602081019050602083039250611fc6565b6001836020036101000a03801982511681845116808217855250505050505090500191505090815260200160405180910390208054600181600116156101000203166002900480601f0160208091040260200160405190810160405280929190818152602001828054600181600116156101000203166002900480156120b25780601f10612087576101008083540402835291602001916120b2565b820191906000526020600020905b81548152906001019060200180831161209557829003601f168201915b50505050509050919050565b6006826040518082805190602001908083835b6020831015156120f657805182526020820191506020810190506020830392506120d1565b6001836020036101000a038019825116818451168082178552505050505050905001915050908152602001604051809103902060009054906101000a900460ff16801561229857503373ffffffffffffffffffffffffffffffffffffffff166004836040518082805190602001908083835b60208310151561218d5780518252602082019150602081019050602083039250612168565b6001836020036101000a038019825116818451168082178552505050505050905001915050908152602001604051809103902060000160009054906101000a900473ffffffffffffffffffffffffffffffffffffffff1673ffffffffffffffffffffffffffffffffffffffff16148015612297575060028081111561220e57fe5b6005836040518082805190602001908083835b6020831015156122465780518252602082019150602081019050602083039250612221565b6001836020036101000a038019825116818451168082178552505050505050905001915050908152602001604051809103902060050160009054906101000a900460ff16600281111561229557fe5b145b5b806123f957503373ffffffffffffffffffffffffffffffffffffffff166005836040518082805190602001908083835b6020831015156122ed57805182526020820191506020810190506020830392506122c8565b6001836020036101000a038019825116818451168082178552505050505050905001915050908152602001604051809103902060000160009054906101000a900473ffffffffffffffffffffffffffffffffffffffff1673ffffffffffffffffffffffffffffffffffffffff161480156123f857506001600281111561236f57fe5b6005836040518082805190602001908083835b6020831015156123a75780518252602082019150602081019050602083039250612382565b6001836020036101000a038019825116818451168082178552505050505050905001915050908152602001604051809103902060050160009054906101000a900460ff1660028111156123f657fe5b145b5b151561240457600080fd5b806004836040518082805190602001908083835b60208310151561243d5780518252602082019150602081019050602083039250612418565b6001836020036101000a038019825116818451168082178552505050505050905001915050908152602001604051809103902060020190805190602001906124869291906134ed565b505050565b6060816006816040518082805190602001908083835b6020831015156124c657805182526020820191506020810190506020830392506124a1565b6001836020036101000a038019825116818451168082178552505050505050905001915050908152602001604051809103902060009054906101000a900460ff1680156125cc57503373ffffffffffffffffffffffffffffffffffffffff166004826040518082805190602001908083835b60208310151561255d5780518252602082019150602081019050602083039250612538565b6001836020036101000a038019825116818451168082178552505050505050905001915050908152602001604051809103902060000160009054906101000a900473ffffffffffffffffffffffffffffffffffffffff1673ffffffffffffffffffffffffffffffffffffffff16145b15156126b2576040517f08c379a00000000000000000000000000000000000000000000000000000000081526004018080602001828103825260648152602001807f506c6561736520636865636b207468652049442c206974207365656d7320746881526020017f61742074686973206163636f756e742069736e2774206578697374206f72207981526020017f6f7520617265206e6f7420746865206f776e6572206f6620746869732061636381526020017f6f756e740000000000000000000000000000000000000000000000000000000081525060800191505060405180910390fd5b600060028111156126bf57fe5b6005846040518082805190602001908083835b6020831015156126f757805182526020820191506020810190506020830392506126d2565b6001836020036101000a038019825116818451168082178552505050505050905001915050908152602001604051809103902060050160009054906101000a900460ff16600281111561274657fe5b14151561275257600080fd5b6004836040518082805190602001908083835b60208310151561278a5780518252602082019150602081019050602083039250612765565b6001836020036101000a038019825116818451168082178552505050505050905001915050908152602001604051809103902060000160009054906101000a900473ffffffffffffffffffffffffffffffffffffffff1673ffffffffffffffffffffffffffffffffffffffff166108fc6005856040518082805190602001908083835b602083101515612832578051825260208201915060208101905060208303925061280d565b6001836020036101000a0380198251168184511680821785525050505050509050019150509081526020016040518091039020600401549081150290604051600060405180830381858888f19350505050158015612894573d6000803e3d6000fd5b5060016005846040518082805190602001908083835b6020831015156128cf57805182526020820191506020810190506020830392506128aa565b6001836020036101000a038019825116818451168082178552505050505050905001915050908152602001604051809103902060050160006101000a81548160ff0219169083600281111561292057fe5b0217905550426005846040518082805190602001908083835b60208310151561295e5780518252602082019150602081019050602083039250612939565b6001836020036101000a0380198251168184511680821785525050505050509050019150509081526020016040518091039020600301819055507fff9707690cfb78898f53d99d7ec9803862e46739e3e6af95284689f30c602ae46005846040518082805190602001908083835b6020831015156129f157805182526020820191506020810190506020830392506129cc565b6001836020036101000a038019825116818451168082178552505050505050905001915050908152602001604051809103902060000160009054906101000a900473ffffffffffffffffffffffffffffffffffffffff16604051808273ffffffffffffffffffffffffffffffffffffffff1673ffffffffffffffffffffffffffffffffffffffff16815260200180602001828103825260318152602001807f52656e7420737563636573732c20706c65617365206368616e6765207061737381526020017f776f726420627920796f757273656c660a0000000000000000000000000000008152506040019250505060405180910390a150919050565b612af661356d565b6006866040518082805190602001908083835b602083101515612b2e5780518252602082019150602081019050602083039250612b09565b6001836020036101000a038019825116818451168082178552505050505050905001915050908152602001604051809103902060009054906101000a900460ff16151515612b7b57600080fd5b60e0604051908101604052803373ffffffffffffffffffffffffffffffffffffffff16815260200187815260200186815260200185815260200184815260200183815260200160006001811115612bce57fe5b8152509050806004876040518082805190602001908083835b602083101515612c0c5780518252602082019150602081019050602083039250612be7565b6001836020036101000a038019825116818451168082178552505050505050905001915050908152602001604051809103902060008201518160000160006101000a81548173ffffffffffffffffffffffffffffffffffffffff021916908373ffffffffffffffffffffffffffffffffffffffff1602179055506020820151816001019080519060200190612ca2929190613425565b506040820151816002019080519060200190612cbf929190613425565b50606082015181600301556080820151816004019080519060200190612ce6929190613425565b5060a0820151816005019080519060200190612d03929190613425565b5060c08201518160060160006101000a81548160ff02191690836001811115612d2857fe5b021790555090505060016006876040518082805190602001908083835b602083101515612d6a5780518252602082019150602081019050602083039250612d45565b6001836020036101000a038019825116818451168082178552505050505050905001915050908152602001604051809103902060006101000a81548160ff021916908315150217905550505050505050565b60006001826040518082805190602001908083835b602083101515612df65780518252602082019150602081019050602083039250612dd1565b6001836020036101000a038019825116818451168082178552505050505050905001915050908152602001604051809103902060009054906101000a900460ff169050919050565b806006816040518082805190602001908083835b602083101515612e775780518252602082019150602081019050602083039250612e52565b6001836020036101000a038019825116818451168082178552505050505050905001915050908152602001604051809103902060009054906101000a900460ff168015612f7d57503373ffffffffffffffffffffffffffffffffffffffff166004826040518082805190602001908083835b602083101515612f0e5780518252602082019150602081019050602083039250612ee9565b6001836020036101000a038019825116818451168082178552505050505050905001915050908152602001604051809103902060000160009054906101000a900473ffffffffffffffffffffffffffffffffffffffff1673ffffffffffffffffffffffffffffffffffffffff16145b1515613063576040517f08c379a00000000000000000000000000000000000000000000000000000000081526004018080602001828103825260648152602001807f506c6561736520636865636b207468652049442c206974207365656d7320746881526020017f61742074686973206163636f756e742069736e2774206578697374206f72207981526020017f6f7520617265206e6f7420746865206f776e6572206f6620746869732061636381526020017f6f756e740000000000000000000000000000000000000000000000000000000081525060800191505060405180910390fd5b6000600281111561307057fe5b6005836040518082805190602001908083835b6020831015156130a85780518252602082019150602081019050602083039250613083565b6001836020036101000a038019825116818451168082178552505050505050905001915050908152602001604051809103902060050160009054906101000a900460ff1660028111156130f757fe5b14806131e157506005826040518082805190602001908083835b6020831015156131365780518252602082019150602081019050602083039250613111565b6001836020036101000a0380198251168184511680821785525050505050509050019150509081526020016040518091039020600201546005836040518082805190602001908083835b6020831015156131a55780518252602082019150602081019050602083039250613180565b6001836020036101000a038019825116818451168082178552505050505050905001915050908152602001604051809103902060030154420310155b15156131ec57600080fd5b6002808111156131f857fe5b6005836040518082805190602001908083835b602083101515613230578051825260208201915060208101905060208303925061320b565b6001836020036101000a038019825116818451168082178552505050505050905001915050908152602001604051809103902060050160009054906101000a900460ff16600281111561327f57fe5b505060006004836040518082805190602001908083835b6020831015156132bb5780518252602082019150602081019050602083039250613296565b6001836020036101000a038019825116818451168082178552505050505050905001915050908152602001604051809103902060060160006101000a81548160ff0219169083600181111561330c57fe5b02179055506040805190810160405280600681526020017f72616e646f6d00000000000000000000000000000000000000000000000000008152506004836040518082805190602001908083835b60208310151561337f578051825260208201915060208101905060208303925061335a565b6001836020036101000a038019825116818451168082178552505050505050905001915050908152602001604051809103902060020190805190602001906133c89291906134ed565b505050565b60c060405190810160405280600073ffffffffffffffffffffffffffffffffffffffff168152602001606081526020016000815260200160008152602001600081526020016000600281111561341f57fe5b81525090565b828054600181600116156101000203166002900490600052602060002090601f016020900481019282601f1061346657805160ff1916838001178555613494565b82800160010185558215613494579182015b82811115613493578251825591602001919060010190613478565b5b5090506134a191906135cc565b5090565b50805460018160011615610100020316600290046000825580601f106134cb57506134ea565b601f0160209004906000526020600020908101906134e991906135cc565b5b50565b828054600181600116156101000203166002900490600052602060002090601f016020900481019282601f1061352e57805160ff191683800117855561355c565b8280016001018555821561355c579182015b8281111561355b578251825591602001919060010190613540565b5b50905061356991906135cc565b5090565b60e060405190810160405280600073ffffffffffffffffffffffffffffffffffffffff1681526020016060815260200160608152602001600081526020016060815260200160608152602001600060018111156135c657fe5b81525090565b6135ee91905b808211156135ea5760008160009055506001016135d2565b5090565b905600a165627a7a72305820fee398e193889e5cba85246d4282bd53444c6f0055f8c93cd6960a3699ed0fd20029",
  "source": "pragma solidity ^0.4.18;\n\ncontract AccountRent {\n    // free  occupy \n    enum accountState {free, occupy}\n\n    // unconfirmconfirmend\n    enum rentState {unconfirm, confirm, end}\n\n    struct rent {\n        address renterAddress;  // \n        string id;              // \n        uint rentTimes;         // \n        uint beginTime;         // \n        uint cost;              // \n        rentState state;        // \n    }\n\n    struct account {\n        address ownerAddress;   // \n        string id;              // \n        string password;        // \n        uint price;             // \n        string accountType;     // \n        string description;     // \n        accountState state;     // \n    }\n\n    account[] accountList;\n\n    // \n    mapping(string => bool) validUsers;\n\n    mapping(string => address) userToAddress;\n\n    // \n    mapping(string => string) userPassword;\n\n    function checkUserValid(string _username) public view returns (bool) {\n        return validUsers[_username];\n    }\n\n    function regist(string _username, string _password, address _userAddress) public {\n        if (validUsers[_username] == false) {\n            validUsers[_username] = true;\n            userPassword[_username] = _password;\n            userToAddress[_username] = _userAddress;\n        }\n    }\n\n    function loginCheck(string _username) public returns (string) {\n        return userPassword[_username];\n    }\n\n    // \n    mapping(string => account) accountPool;\n\n    // \n    mapping(string => rent) rentPool;\n\n    // \n    mapping(string => bool) validAccounts;\n\n    // \n    event notice(address addr, string message);\n\n    // \n    modifier onlyOwner(string _id) {\n        require(validAccounts[_id] && accountPool[_id].ownerAddress == msg.sender,\n            \"Please check the ID, it seems that this account isn't exist or you are not the owner of this account\");\n        _;\n    }\n\n    // \n    modifier onlyRenter(string _id) {\n        require(validAccounts[_id] && rentPool[_id].renterAddress == msg.sender,\n            \"Please check the ID, it seems that this account isn't exist or you are not the renter of this account\");\n        _;\n    }\n\n    /**\n     * description: \n     * param _id: \n     * param _rentTimes: //\n     */\n    function createRent(string _id, uint _rentTimes) public payable {\n        // \n        require(accountPool[_id].state == accountState.free);\n        // \n        rent memory newRent = rent({\n            renterAddress: msg.sender,\n            id: _id,\n            rentTimes: _rentTimes,\n            state: rentState.unconfirm,\n            beginTime: 0,\n            cost: accountPool[_id].price * _rentTimes * 1 ether\n        });\n        // , \n        require(msg.value == newRent.cost); \n        // \n        rentPool[_id] = newRent;\n        // \n        accountPool[_id].state = accountState.occupy;\n        // \n        emit notice(accountPool[_id].ownerAddress, \"Someone require to rent your account\\n\");\n    }\n\n    /**\n     * description: \n     * param _id\n     */\n    function confirmRent(string _id) public onlyOwner(_id) returns (string) {\n        // \n        require(rentPool[_id].state == rentState.unconfirm); \n\n        accountPool[_id].ownerAddress.transfer(rentPool[_id].cost);\n        rentPool[_id].state = rentState.confirm;\n        rentPool[_id].beginTime = now;\n        // \n        emit notice(rentPool[_id].renterAddress, \"Rent success, please change password by yourself\\n\");\n    }\n\n    /**\n     * description: \n     * param _id: \n     */\n    function refuseRent(string _id) public onlyOwner(_id) {\n        // \n        require(rentPool[_id].state == rentState.unconfirm); \n\n        // \n        rentPool[_id].state == rentState.end;\n        accountPool[_id].state = accountState.free;\n        // \n        rentPool[_id].renterAddress.transfer(rentPool[_id].cost);\n        // \n        emit notice(rentPool[_id].renterAddress, \"The owner refuse your rent request\\n\");\n    }\n\n    /**\n     * description: \n     * param _id: \n     * param _password: \n     */\n    function changePassword(string _id, string _password) public {\n        // \n        // \n        //          \n        require(validAccounts[_id] && \n            (accountPool[_id].ownerAddress == msg.sender && rentPool[_id].state == rentState.end) ||\n            (rentPool[_id].renterAddress == msg.sender && rentPool[_id].state == rentState.confirm));\n        accountPool[_id].password = _password; \n    }\n\n    /**\n     * description: \n     * param _id: \n     */\n    function getPassword(string _id) public view returns (string) {\n        // \n        // \n        //          \n        require(validAccounts[_id] && \n            (accountPool[_id].ownerAddress == msg.sender && rentPool[_id].state == rentState.end) ||\n            (rentPool[_id].renterAddress == msg.sender && rentPool[_id].state == rentState.confirm));\n        return accountPool[_id].password;\n    }\n\n    /**\n     * description: \n     * param _id: \n     */\n    function endRent(string _id) public onlyOwner(_id) {\n        // \n        require(rentPool[_id].state == rentState.unconfirm ||\n            now - rentPool[_id].beginTime >= rentPool[_id].rentTimes);\n\n        // \n        rentPool[_id].state == rentState.end;\n        // \n        accountPool[_id].state = accountState.free;\n        // \n        accountPool[_id].password = \"random\"; \n    }\n\n    /**\n     * description: \n     * param _id: \n     * param _password: \n     * param _price: \n     * param _description: \n     */\n    function createAccount(string _id, string _password, uint _price, string _accountType, string _description) public {\n        require(!validAccounts[_id]); // \n        // \n        account memory newAccount = account({\n            ownerAddress: msg.sender,\n            id: _id,\n            password: _password,\n            price: _price,\n            accountType: _accountType,\n            description: _description,\n            state: accountState.free\n        });\n        // \n        accountPool[_id] = newAccount;\n        // \n        validAccounts[_id] = true;\n    }\n\n    /**\n     * description: \n     * param _id: \n     */\n    function removeAccount(string _id) public onlyOwner(_id) {\n        require(accountPool[_id].state == accountState.free);\n        // \n        delete accountPool[_id];\n        // false\n        validAccounts[_id] = false;\n    }\n\n    /**\n     * description: \n     * param _id: \n     * return accountState: \n     */\n    function getAccountState(string _id) public view returns (accountState) {\n        require(validAccounts[_id]); // \n        // \n        return accountPool[_id].state;\n    }\n\n}",
  "sourcePath": "E:\\\\\\myDapp\\contracts\\AccountRent.sol",
  "compiler": {
    "name": "solc",
    "version": "0.4.24+commit.e67f0147.Emscripten.clang"
  },
  "schemaVersion": "2.0.1",
  "updatedAt": "2018-12-27T17:15:59.197Z"
}