{
  "contractName": "AccountRent",
  "abi": [
    {
      "anonymous": false,
      "inputs": [
        {
          "indexed": false,
          "name": "addr",
          "type": "address"
        },
        {
          "indexed": false,
          "name": "message",
          "type": "string"
        }
      ],
      "name": "notice",
      "type": "event"
    },
    {
      "constant": true,
      "inputs": [],
      "name": "getWaitingRentNum",
      "outputs": [
        {
          "name": "",
          "type": "uint256"
        }
      ],
      "payable": false,
      "stateMutability": "view",
      "type": "function"
    },
    {
      "constant": true,
      "inputs": [
        {
          "name": "_username",
          "type": "string"
        }
      ],
      "name": "checkUserValid",
      "outputs": [
        {
          "name": "",
          "type": "bool"
        }
      ],
      "payable": false,
      "stateMutability": "view",
      "type": "function"
    },
    {
      "constant": false,
      "inputs": [
        {
          "name": "_username",
          "type": "string"
        },
        {
          "name": "_password",
          "type": "string"
        },
        {
          "name": "_userAddress",
          "type": "address"
        }
      ],
      "name": "regist",
      "outputs": [],
      "payable": false,
      "stateMutability": "nonpayable",
      "type": "function"
    },
    {
      "constant": true,
      "inputs": [
        {
          "name": "_username",
          "type": "string"
        }
      ],
      "name": "loginCheck",
      "outputs": [
        {
          "name": "",
          "type": "string"
        }
      ],
      "payable": false,
      "stateMutability": "view",
      "type": "function"
    },
    {
      "constant": false,
      "inputs": [
        {
          "name": "_id",
          "type": "string"
        },
        {
          "name": "_rentTimes",
          "type": "uint256"
        }
      ],
      "name": "createRent",
      "outputs": [],
      "payable": true,
      "stateMutability": "payable",
      "type": "function"
    },
    {
      "constant": false,
      "inputs": [
        {
          "name": "_id",
          "type": "string"
        }
      ],
      "name": "confirmRent",
      "outputs": [
        {
          "name": "",
          "type": "string"
        }
      ],
      "payable": false,
      "stateMutability": "nonpayable",
      "type": "function"
    },
    {
      "constant": false,
      "inputs": [
        {
          "name": "_id",
          "type": "string"
        }
      ],
      "name": "refuseRent",
      "outputs": [],
      "payable": false,
      "stateMutability": "nonpayable",
      "type": "function"
    },
    {
      "constant": false,
      "inputs": [
        {
          "name": "_id",
          "type": "string"
        },
        {
          "name": "_password",
          "type": "string"
        }
      ],
      "name": "changePassword",
      "outputs": [],
      "payable": false,
      "stateMutability": "nonpayable",
      "type": "function"
    },
    {
      "constant": true,
      "inputs": [
        {
          "name": "_id",
          "type": "string"
        }
      ],
      "name": "getPassword",
      "outputs": [
        {
          "name": "",
          "type": "string"
        }
      ],
      "payable": false,
      "stateMutability": "view",
      "type": "function"
    },
    {
      "constant": false,
      "inputs": [
        {
          "name": "_id",
          "type": "string"
        }
      ],
      "name": "endRent",
      "outputs": [],
      "payable": false,
      "stateMutability": "nonpayable",
      "type": "function"
    },
    {
      "constant": false,
      "inputs": [
        {
          "name": "_id",
          "type": "string"
        },
        {
          "name": "_password",
          "type": "string"
        },
        {
          "name": "_price",
          "type": "uint256"
        },
        {
          "name": "_accountType",
          "type": "string"
        },
        {
          "name": "_description",
          "type": "string"
        }
      ],
      "name": "createAccount",
      "outputs": [],
      "payable": false,
      "stateMutability": "nonpayable",
      "type": "function"
    },
    {
      "constant": false,
      "inputs": [
        {
          "name": "_id",
          "type": "string"
        }
      ],
      "name": "removeAccount",
      "outputs": [],
      "payable": false,
      "stateMutability": "nonpayable",
      "type": "function"
    },
    {
      "constant": true,
      "inputs": [
        {
          "name": "_id",
          "type": "string"
        }
      ],
      "name": "getAccountState",
      "outputs": [
        {
          "name": "",
          "type": "uint8"
        }
      ],
      "payable": false,
      "stateMutability": "view",
      "type": "function"
    }
  ],
  "bytecode": "0x608060405234801561001057600080fd5b50613661806100206000396000f3006080604052600436106100c5576000357c0100000000000000000000000000000000000000000000000000000000900463ffffffff16806301b8c31c146100ca5780630420d56b146101ac5780632badd4b71461023757806346038ddc1461029d5780634e5a77041461030657806371ea9a891461036f57806374c6855d1461043e57806384a8366214610520578063864fdd29146105cf5780639cf08314146106b1578063ac346705146107f6578063b7f31b3514610877578063e92695a0146108a2575b600080fd5b3480156100d657600080fd5b50610131600480360381019080803590602001908201803590602001908080601f016020809104026020016040519081016040528093929190818152602001838380828437820191505050505050919291929050505061090b565b6040518080602001828103825283818151815260200191508051906020019080838360005b83811015610171578082015181840152602081019050610156565b50505050905090810190601f16801561019e5780820380516001836020036101000a031916815260200191505b509250505060405180910390f35b3480156101b857600080fd5b50610213600480360381019080803590602001908201803590602001908080601f0160208091040260200160405190810160405280939291908181526020018383808284378201915050505050509192919290505050610d61565b6040518082600181111561022357fe5b60ff16815260200191505060405180910390f35b61029b600480360381019080803590602001908201803590602001908080601f016020809104026020016040519081016040528093929190818152602001838380828437820191505050505050919291929080359060200190929190505050610e6a565b005b3480156102a957600080fd5b50610304600480360381019080803590602001908201803590602001908080601f01602080910402602001604051908101604052809392919081815260200183838082843782019150505050505091929192905050506112f0565b005b34801561031257600080fd5b5061036d600480360381019080803590602001908201803590602001908080601f016020809104026020016040519081016040528093929190818152602001838380828437820191505050505050919291929050505061172e565b005b34801561037b57600080fd5b5061043c600480360381019080803590602001908201803590602001908080601f0160208091040260200160405190810160405280939291908181526020018383808284378201915050505050509192919290803590602001908201803590602001908080601f0160208091040260200160405190810160405280939291908181526020018383808284378201915050505050509192919290803573ffffffffffffffffffffffffffffffffffffffff169060200190929190505050611daf565b005b34801561044a57600080fd5b506104a5600480360381019080803590602001908201803590602001908080601f0160208091040260200160405190810160405280939291908181526020018383808284378201915050505050509192919290505050611fe8565b6040518080602001828103825283818151815260200191508051906020019080838360005b838110156104e55780820151818401526020810190506104ca565b50505050905090810190601f1680156105125780820380516001836020036101000a031916815260200191505b509250505060405180910390f35b34801561052c57600080fd5b506105cd600480360381019080803590602001908201803590602001908080601f0160208091040260200160405190810160405280939291908181526020018383808284378201915050505050509192919290803590602001908201803590602001908080601f01602080910402602001604051908101604052809392919081815260200183838082843782019150505050505091929192905050506120f5565b005b3480156105db57600080fd5b50610636600480360381019080803590602001908201803590602001908080601f01602080910402602001604051908101604052809392919081815260200183838082843782019150505050505091929192905050506124c2565b6040518080602001828103825283818151815260200191508051906020019080838360005b8381101561067657808201518184015260208101905061065b565b50505050905090810190601f1680156106a35780820380516001836020036101000a031916815260200191505b509250505060405180910390f35b3480156106bd57600080fd5b506107f4600480360381019080803590602001908201803590602001908080601f0160208091040260200160405190810160405280939291908181526020018383808284378201915050505050509192919290803590602001908201803590602001908080601f016020809104026020016040519081016040528093929190818152602001838380828437820191505050505050919291929080359060200190929190803590602001908201803590602001908080601f0160208091040260200160405190810160405280939291908181526020018383808284378201915050505050509192919290803590602001908201803590602001908080601f0160208091040260200160405190810160405280939291908181526020018383808284378201915050505050509192919290505050612b25565b005b34801561080257600080fd5b5061085d600480360381019080803590602001908201803590602001908080601f0160208091040260200160405190810160405280939291908181526020018383808284378201915050505050509192919290505050612df3565b604051808215151515815260200191505060405180910390f35b34801561088357600080fd5b5061088c612e75565b6040518082815260200191505060405180910390f35b3480156108ae57600080fd5b50610909600480360381019080803590602001908201803590602001908080601f0160208091040260200160405190810160405280939291908181526020018383808284378201915050505050509192919290505050612e82565b005b60606007826040518082805190602001908083835b6020831015156109455780518252602082019150602081019050602083039250610920565b6001836020036101000a038019825116818451168082178552505050505050905001915050908152602001604051809103902060009054906101000a900460ff168015610ae757503373ffffffffffffffffffffffffffffffffffffffff166005836040518082805190602001908083835b6020831015156109dc57805182526020820191506020810190506020830392506109b7565b6001836020036101000a038019825116818451168082178552505050505050905001915050908152602001604051809103902060000160009054906101000a900473ffffffffffffffffffffffffffffffffffffffff1673ffffffffffffffffffffffffffffffffffffffff16148015610ae65750600280811115610a5d57fe5b6006836040518082805190602001908083835b602083101515610a955780518252602082019150602081019050602083039250610a70565b6001836020036101000a038019825116818451168082178552505050505050905001915050908152602001604051809103902060050160009054906101000a900460ff166002811115610ae457fe5b145b5b80610c4857503373ffffffffffffffffffffffffffffffffffffffff166006836040518082805190602001908083835b602083101515610b3c5780518252602082019150602081019050602083039250610b17565b6001836020036101000a038019825116818451168082178552505050505050905001915050908152602001604051809103902060000160009054906101000a900473ffffffffffffffffffffffffffffffffffffffff1673ffffffffffffffffffffffffffffffffffffffff16148015610c47575060016002811115610bbe57fe5b6006836040518082805190602001908083835b602083101515610bf65780518252602082019150602081019050602083039250610bd1565b6001836020036101000a038019825116818451168082178552505050505050905001915050908152602001604051809103902060050160009054906101000a900460ff166002811115610c4557fe5b145b5b1515610c5357600080fd5b6005826040518082805190602001908083835b602083101515610c8b5780518252602082019150602081019050602083039250610c66565b6001836020036101000a03801982511681845116808217855250505050505090500191505090815260200160405180910390206002018054600181600116156101000203166002900480601f016020809104026020016040519081016040528092919081815260200182805460018160011615610100020316600290048015610d555780601f10610d2a57610100808354040283529160200191610d55565b820191906000526020600020905b815481529060010190602001808311610d3857829003601f168201915b50505050509050919050565b60006007826040518082805190602001908083835b602083101515610d9b5780518252602082019150602081019050602083039250610d76565b6001836020036101000a038019825116818451168082178552505050505050905001915050908152602001604051809103902060009054906101000a900460ff161515610de757600080fd5b6005826040518082805190602001908083835b602083101515610e1f5780518252602082019150602081019050602083039250610dfa565b6001836020036101000a038019825116818451168082178552505050505050905001915050908152602001604051809103902060060160009054906101000a900460ff169050919050565b610e72613411565b60006001811115610e7f57fe5b6005846040518082805190602001908083835b602083101515610eb75780518252602082019150602081019050602083039250610e92565b6001836020036101000a038019825116818451168082178552505050505050905001915050908152602001604051809103902060060160009054906101000a900460ff166001811115610f0657fe5b141515610f1257600080fd5b60c0604051908101604052803373ffffffffffffffffffffffffffffffffffffffff16815260200184815260200183815260200160008152602001670de0b6b3a7640000846005876040518082805190602001908083835b602083101515610f8f5780518252602082019150602081019050602083039250610f6a565b6001836020036101000a0380198251168184511680821785525050505050509050019150509081526020016040518091039020600301540202815260200160006002811115610fda57fe5b8152509050806080015134141515610ff157600080fd5b806006846040518082805190602001908083835b60208310151561102a5780518252602082019150602081019050602083039250611005565b6001836020036101000a038019825116818451168082178552505050505050905001915050908152602001604051809103902060008201518160000160006101000a81548173ffffffffffffffffffffffffffffffffffffffff021916908373ffffffffffffffffffffffffffffffffffffffff16021790555060208201518160010190805190602001906110c0929190613469565b5060408201518160020155606082015181600301556080820151816004015560a08201518160050160006101000a81548160ff0219169083600281111561110357fe5b021790555090505060016005846040518082805190602001908083835b6020831015156111455780518252602082019150602081019050602083039250611120565b6001836020036101000a038019825116818451168082178552505050505050905001915050908152602001604051809103902060060160006101000a81548160ff0219169083600181111561119657fe5b02179055507fff9707690cfb78898f53d99d7ec9803862e46739e3e6af95284689f30c602ae46005846040518082805190602001908083835b6020831015156111f457805182526020820191506020810190506020830392506111cf565b6001836020036101000a038019825116818451168082178552505050505050905001915050908152602001604051809103902060000160009054906101000a900473ffffffffffffffffffffffffffffffffffffffff16604051808273ffffffffffffffffffffffffffffffffffffffff1673ffffffffffffffffffffffffffffffffffffffff16815260200180602001828103825260258152602001807f536f6d656f6e65207265717569726520746f2072656e7420796f75722061636381526020017f6f756e740a0000000000000000000000000000000000000000000000000000008152506040019250505060405180910390a1505050565b806007816040518082805190602001908083835b6020831015156113295780518252602082019150602081019050602083039250611304565b6001836020036101000a038019825116818451168082178552505050505050905001915050908152602001604051809103902060009054906101000a900460ff16801561142f57503373ffffffffffffffffffffffffffffffffffffffff166005826040518082805190602001908083835b6020831015156113c0578051825260208201915060208101905060208303925061139b565b6001836020036101000a038019825116818451168082178552505050505050905001915050908152602001604051809103902060000160009054906101000a900473ffffffffffffffffffffffffffffffffffffffff1673ffffffffffffffffffffffffffffffffffffffff16145b1515611515576040517f08c379a00000000000000000000000000000000000000000000000000000000081526004018080602001828103825260648152602001807f506c6561736520636865636b207468652049442c206974207365656d7320746881526020017f61742074686973206163636f756e742069736e2774206578697374206f72207981526020017f6f7520617265206e6f7420746865206f776e6572206f6620746869732061636381526020017f6f756e740000000000000000000000000000000000000000000000000000000081525060800191505060405180910390fd5b6000600181111561152257fe5b6005836040518082805190602001908083835b60208310151561155a5780518252602082019150602081019050602083039250611535565b6001836020036101000a038019825116818451168082178552505050505050905001915050908152602001604051809103902060060160009054906101000a900460ff1660018111156115a957fe5b1415156115b557600080fd5b6005826040518082805190602001908083835b6020831015156115ed57805182526020820191506020810190506020830392506115c8565b6001836020036101000a0380198251168184511680821785525050505050509050019150509081526020016040518091039020600080820160006101000a81549073ffffffffffffffffffffffffffffffffffffffff021916905560018201600061165891906134e9565b60028201600061166891906134e9565b600382016000905560048201600061168091906134e9565b60058201600061169091906134e9565b6006820160006101000a81549060ff0219169055505060006007836040518082805190602001908083835b6020831015156116e057805182526020820191506020810190506020830392506116bb565b6001836020036101000a038019825116818451168082178552505050505050905001915050908152602001604051809103902060006101000a81548160ff0219169083151502179055505050565b806007816040518082805190602001908083835b6020831015156117675780518252602082019150602081019050602083039250611742565b6001836020036101000a038019825116818451168082178552505050505050905001915050908152602001604051809103902060009054906101000a900460ff16801561186d57503373ffffffffffffffffffffffffffffffffffffffff166005826040518082805190602001908083835b6020831015156117fe57805182526020820191506020810190506020830392506117d9565b6001836020036101000a038019825116818451168082178552505050505050905001915050908152602001604051809103902060000160009054906101000a900473ffffffffffffffffffffffffffffffffffffffff1673ffffffffffffffffffffffffffffffffffffffff16145b1515611953576040517f08c379a00000000000000000000000000000000000000000000000000000000081526004018080602001828103825260648152602001807f506c6561736520636865636b207468652049442c206974207365656d7320746881526020017f61742074686973206163636f756e742069736e2774206578697374206f72207981526020017f6f7520617265206e6f7420746865206f776e6572206f6620746869732061636381526020017f6f756e740000000000000000000000000000000000000000000000000000000081525060800191505060405180910390fd5b6000600281111561196057fe5b6006836040518082805190602001908083835b6020831015156119985780518252602082019150602081019050602083039250611973565b6001836020036101000a038019825116818451168082178552505050505050905001915050908152602001604051809103902060050160009054906101000a900460ff1660028111156119e757fe5b1415156119f357600080fd5b6002808111156119ff57fe5b6006836040518082805190602001908083835b602083101515611a375780518252602082019150602081019050602083039250611a12565b6001836020036101000a038019825116818451168082178552505050505050905001915050908152602001604051809103902060050160009054906101000a900460ff166002811115611a8657fe5b505060006005836040518082805190602001908083835b602083101515611ac25780518252602082019150602081019050602083039250611a9d565b6001836020036101000a038019825116818451168082178552505050505050905001915050908152602001604051809103902060060160006101000a81548160ff02191690836001811115611b1357fe5b02179055506006826040518082805190602001908083835b602083101515611b505780518252602082019150602081019050602083039250611b2b565b6001836020036101000a038019825116818451168082178552505050505050905001915050908152602001604051809103902060000160009054906101000a900473ffffffffffffffffffffffffffffffffffffffff1673ffffffffffffffffffffffffffffffffffffffff166108fc6006846040518082805190602001908083835b602083101515611bf85780518252602082019150602081019050602083039250611bd3565b6001836020036101000a0380198251168184511680821785525050505050509050019150509081526020016040518091039020600401549081150290604051600060405180830381858888f19350505050158015611c5a573d6000803e3d6000fd5b507fff9707690cfb78898f53d99d7ec9803862e46739e3e6af95284689f30c602ae46006836040518082805190602001908083835b602083101515611cb45780518252602082019150602081019050602083039250611c8f565b6001836020036101000a038019825116818451168082178552505050505050905001915050908152602001604051809103902060000160009054906101000a900473ffffffffffffffffffffffffffffffffffffffff16604051808273ffffffffffffffffffffffffffffffffffffffff1673ffffffffffffffffffffffffffffffffffffffff16815260200180602001828103825260238152602001807f546865206f776e65722072656675736520796f75722072656e7420726571756581526020017f73740a00000000000000000000000000000000000000000000000000000000008152506040019250505060405180910390a15050565b600015156002846040518082805190602001908083835b602083101515611deb5780518252602082019150602081019050602083039250611dc6565b6001836020036101000a038019825116818451168082178552505050505050905001915050908152602001604051809103902060009054906101000a900460ff1615151415611fe35760016002846040518082805190602001908083835b602083101515611e6e5780518252602082019150602081019050602083039250611e49565b6001836020036101000a038019825116818451168082178552505050505050905001915050908152602001604051809103902060006101000a81548160ff021916908315150217905550816004846040518082805190602001908083835b602083101515611ef15780518252602082019150602081019050602083039250611ecc565b6001836020036101000a03801982511681845116808217855250505050505090500191505090815260200160405180910390209080519060200190611f37929190613531565b50806003846040518082805190602001908083835b602083101515611f715780518252602082019150602081019050602083039250611f4c565b6001836020036101000a038019825116818451168082178552505050505050905001915050908152602001604051809103902060006101000a81548173ffffffffffffffffffffffffffffffffffffffff021916908373ffffffffffffffffffffffffffffffffffffffff1602179055505b505050565b60606004826040518082805190602001908083835b6020831015156120225780518252602082019150602081019050602083039250611ffd565b6001836020036101000a03801982511681845116808217855250505050505090500191505090815260200160405180910390208054600181600116156101000203166002900480601f0160208091040260200160405190810160405280929190818152602001828054600181600116156101000203166002900480156120e95780601f106120be576101008083540402835291602001916120e9565b820191906000526020600020905b8154815290600101906020018083116120cc57829003601f168201915b50505050509050919050565b6007826040518082805190602001908083835b60208310151561212d5780518252602082019150602081019050602083039250612108565b6001836020036101000a038019825116818451168082178552505050505050905001915050908152602001604051809103902060009054906101000a900460ff1680156122cf57503373ffffffffffffffffffffffffffffffffffffffff166005836040518082805190602001908083835b6020831015156121c4578051825260208201915060208101905060208303925061219f565b6001836020036101000a038019825116818451168082178552505050505050905001915050908152602001604051809103902060000160009054906101000a900473ffffffffffffffffffffffffffffffffffffffff1673ffffffffffffffffffffffffffffffffffffffff161480156122ce575060028081111561224557fe5b6006836040518082805190602001908083835b60208310151561227d5780518252602082019150602081019050602083039250612258565b6001836020036101000a038019825116818451168082178552505050505050905001915050908152602001604051809103902060050160009054906101000a900460ff1660028111156122cc57fe5b145b5b8061243057503373ffffffffffffffffffffffffffffffffffffffff166006836040518082805190602001908083835b60208310151561232457805182526020820191506020810190506020830392506122ff565b6001836020036101000a038019825116818451168082178552505050505050905001915050908152602001604051809103902060000160009054906101000a900473ffffffffffffffffffffffffffffffffffffffff1673ffffffffffffffffffffffffffffffffffffffff1614801561242f5750600160028111156123a657fe5b6006836040518082805190602001908083835b6020831015156123de57805182526020820191506020810190506020830392506123b9565b6001836020036101000a038019825116818451168082178552505050505050905001915050908152602001604051809103902060050160009054906101000a900460ff16600281111561242d57fe5b145b5b151561243b57600080fd5b806005836040518082805190602001908083835b602083101515612474578051825260208201915060208101905060208303925061244f565b6001836020036101000a038019825116818451168082178552505050505050905001915050908152602001604051809103902060020190805190602001906124bd929190613531565b505050565b6060816007816040518082805190602001908083835b6020831015156124fd57805182526020820191506020810190506020830392506124d8565b6001836020036101000a038019825116818451168082178552505050505050905001915050908152602001604051809103902060009054906101000a900460ff16801561260357503373ffffffffffffffffffffffffffffffffffffffff166005826040518082805190602001908083835b602083101515612594578051825260208201915060208101905060208303925061256f565b6001836020036101000a038019825116818451168082178552505050505050905001915050908152602001604051809103902060000160009054906101000a900473ffffffffffffffffffffffffffffffffffffffff1673ffffffffffffffffffffffffffffffffffffffff16145b15156126e9576040517f08c379a00000000000000000000000000000000000000000000000000000000081526004018080602001828103825260648152602001807f506c6561736520636865636b207468652049442c206974207365656d7320746881526020017f61742074686973206163636f756e742069736e2774206578697374206f72207981526020017f6f7520617265206e6f7420746865206f776e6572206f6620746869732061636381526020017f6f756e740000000000000000000000000000000000000000000000000000000081525060800191505060405180910390fd5b600060028111156126f657fe5b6006846040518082805190602001908083835b60208310151561272e5780518252602082019150602081019050602083039250612709565b6001836020036101000a038019825116818451168082178552505050505050905001915050908152602001604051809103902060050160009054906101000a900460ff16600281111561277d57fe5b14151561278957600080fd5b6005836040518082805190602001908083835b6020831015156127c1578051825260208201915060208101905060208303925061279c565b6001836020036101000a038019825116818451168082178552505050505050905001915050908152602001604051809103902060000160009054906101000a900473ffffffffffffffffffffffffffffffffffffffff1673ffffffffffffffffffffffffffffffffffffffff166108fc6006856040518082805190602001908083835b6020831015156128695780518252602082019150602081019050602083039250612844565b6001836020036101000a0380198251168184511680821785525050505050509050019150509081526020016040518091039020600401549081150290604051600060405180830381858888f193505050501580156128cb573d6000803e3d6000fd5b5060016006846040518082805190602001908083835b60208310151561290657805182526020820191506020810190506020830392506128e1565b6001836020036101000a038019825116818451168082178552505050505050905001915050908152602001604051809103902060050160006101000a81548160ff0219169083600281111561295757fe5b0217905550426006846040518082805190602001908083835b6020831015156129955780518252602082019150602081019050602083039250612970565b6001836020036101000a0380198251168184511680821785525050505050509050019150509081526020016040518091039020600301819055507fff9707690cfb78898f53d99d7ec9803862e46739e3e6af95284689f30c602ae46006846040518082805190602001908083835b602083101515612a285780518252602082019150602081019050602083039250612a03565b6001836020036101000a038019825116818451168082178552505050505050905001915050908152602001604051809103902060000160009054906101000a900473ffffffffffffffffffffffffffffffffffffffff16604051808273ffffffffffffffffffffffffffffffffffffffff1673ffffffffffffffffffffffffffffffffffffffff16815260200180602001828103825260318152602001807f52656e7420737563636573732c20706c65617365206368616e6765207061737381526020017f776f726420627920796f757273656c660a0000000000000000000000000000008152506040019250505060405180910390a150919050565b612b2d6135b1565b6007866040518082805190602001908083835b602083101515612b655780518252602082019150602081019050602083039250612b40565b6001836020036101000a038019825116818451168082178552505050505050905001915050908152602001604051809103902060009054906101000a900460ff16151515612bb257600080fd5b60e0604051908101604052803373ffffffffffffffffffffffffffffffffffffffff16815260200187815260200186815260200185815260200184815260200183815260200160006001811115612c0557fe5b8152509050806005876040518082805190602001908083835b602083101515612c435780518252602082019150602081019050602083039250612c1e565b6001836020036101000a038019825116818451168082178552505050505050905001915050908152602001604051809103902060008201518160000160006101000a81548173ffffffffffffffffffffffffffffffffffffffff021916908373ffffffffffffffffffffffffffffffffffffffff1602179055506020820151816001019080519060200190612cd9929190613469565b506040820151816002019080519060200190612cf6929190613469565b50606082015181600301556080820151816004019080519060200190612d1d929190613469565b5060a0820151816005019080519060200190612d3a929190613469565b5060c08201518160060160006101000a81548160ff02191690836001811115612d5f57fe5b021790555090505060016007876040518082805190602001908083835b602083101515612da15780518252602082019150602081019050602083039250612d7c565b6001836020036101000a038019825116818451168082178552505050505050905001915050908152602001604051809103902060006101000a81548160ff021916908315150217905550505050505050565b60006002826040518082805190602001908083835b602083101515612e2d5780518252602082019150602081019050602083039250612e08565b6001836020036101000a038019825116818451168082178552505050505050905001915050908152602001604051809103902060009054906101000a900460ff169050919050565b6000600180549050905090565b806007816040518082805190602001908083835b602083101515612ebb5780518252602082019150602081019050602083039250612e96565b6001836020036101000a038019825116818451168082178552505050505050905001915050908152602001604051809103902060009054906101000a900460ff168015612fc157503373ffffffffffffffffffffffffffffffffffffffff166005826040518082805190602001908083835b602083101515612f525780518252602082019150602081019050602083039250612f2d565b6001836020036101000a038019825116818451168082178552505050505050905001915050908152602001604051809103902060000160009054906101000a900473ffffffffffffffffffffffffffffffffffffffff1673ffffffffffffffffffffffffffffffffffffffff16145b15156130a7576040517f08c379a00000000000000000000000000000000000000000000000000000000081526004018080602001828103825260648152602001807f506c6561736520636865636b207468652049442c206974207365656d7320746881526020017f61742074686973206163636f756e742069736e2774206578697374206f72207981526020017f6f7520617265206e6f7420746865206f776e6572206f6620746869732061636381526020017f6f756e740000000000000000000000000000000000000000000000000000000081525060800191505060405180910390fd5b600060028111156130b457fe5b6006836040518082805190602001908083835b6020831015156130ec57805182526020820191506020810190506020830392506130c7565b6001836020036101000a038019825116818451168082178552505050505050905001915050908152602001604051809103902060050160009054906101000a900460ff16600281111561313b57fe5b148061322557506006826040518082805190602001908083835b60208310151561317a5780518252602082019150602081019050602083039250613155565b6001836020036101000a0380198251168184511680821785525050505050509050019150509081526020016040518091039020600201546006836040518082805190602001908083835b6020831015156131e957805182526020820191506020810190506020830392506131c4565b6001836020036101000a038019825116818451168082178552505050505050905001915050908152602001604051809103902060030154420310155b151561323057600080fd5b60028081111561323c57fe5b6006836040518082805190602001908083835b602083101515613274578051825260208201915060208101905060208303925061324f565b6001836020036101000a038019825116818451168082178552505050505050905001915050908152602001604051809103902060050160009054906101000a900460ff1660028111156132c357fe5b505060006005836040518082805190602001908083835b6020831015156132ff57805182526020820191506020810190506020830392506132da565b6001836020036101000a038019825116818451168082178552505050505050905001915050908152602001604051809103902060060160006101000a81548160ff0219169083600181111561335057fe5b02179055506040805190810160405280600681526020017f72616e646f6d00000000000000000000000000000000000000000000000000008152506005836040518082805190602001908083835b6020831015156133c3578051825260208201915060208101905060208303925061339e565b6001836020036101000a0380198251168184511680821785525050505050509050019150509081526020016040518091039020600201908051906020019061340c929190613531565b505050565b60c060405190810160405280600073ffffffffffffffffffffffffffffffffffffffff168152602001606081526020016000815260200160008152602001600081526020016000600281111561346357fe5b81525090565b828054600181600116156101000203166002900490600052602060002090601f016020900481019282601f106134aa57805160ff19168380011785556134d8565b828001600101855582156134d8579182015b828111156134d75782518255916020019190600101906134bc565b5b5090506134e59190613610565b5090565b50805460018160011615610100020316600290046000825580601f1061350f575061352e565b601f01602090049060005260206000209081019061352d9190613610565b5b50565b828054600181600116156101000203166002900490600052602060002090601f016020900481019282601f1061357257805160ff19168380011785556135a0565b828001600101855582156135a0579182015b8281111561359f578251825591602001919060010190613584565b5b5090506135ad9190613610565b5090565b60e060405190810160405280600073ffffffffffffffffffffffffffffffffffffffff16815260200160608152602001606081526020016000815260200160608152602001606081526020016000600181111561360a57fe5b81525090565b61363291905b8082111561362e576000816000905550600101613616565b5090565b905600a165627a7a723058202b9b7b8ddcb42f25ef4636b232ea2cd04b42a6bbed966d8fcf210e21604b85f40029",
  "source": "pragma solidity ^0.4.17;\n\ncontract AccountRent {\n    // free  occupy \n    enum accountState {free, occupy}\n\n    // unconfirmconfirmend\n    enum rentState {unconfirm, confirm, end}\n\n    struct rent {\n        address renterAddress;  // \n        string id;              // \n        uint rentTimes;         // \n        uint beginTime;         // \n        uint cost;              // \n        rentState state;        // \n    }\n\n    struct account {\n        address ownerAddress;   // \n        string id;              // \n        string password;        // \n        uint price;             // \n        string accountType;     // \n        string description;     // \n        accountState state;     // \n    }\n\n    account[] accountList;\n    rent[] waitingRent;\n\n    // \n    mapping(string => bool) validUsers;\n\n    mapping(string => address) userToAddress;\n\n    // \n    mapping(string => string) userPassword;\n\n    function getWaitingRentNum() public view returns (uint) {\n        return waitingRent.length;\n    }\n\n    function checkUserValid(string _username) public view returns (bool) {\n        return validUsers[_username];\n    }\n\n    function regist(string _username, string _password, address _userAddress) public {\n        if (validUsers[_username] == false) {\n            validUsers[_username] = true;\n            userPassword[_username] = _password;\n            userToAddress[_username] = _userAddress;\n        }\n    }\n\n    function loginCheck(string _username) public view returns (string) {\n        return userPassword[_username];\n    }\n\n    // \n    mapping(string => account) accountPool;\n\n    // \n    mapping(string => rent) rentPool;\n\n    // \n    mapping(string => bool) validAccounts;\n\n    // \n    event notice(address addr, string message);\n\n    // \n    modifier onlyOwner(string _id) {\n        require(validAccounts[_id] && accountPool[_id].ownerAddress == msg.sender,\n            \"Please check the ID, it seems that this account isn't exist or you are not the owner of this account\");\n        _;\n    }\n\n    // \n    modifier onlyRenter(string _id) {\n        require(validAccounts[_id] && rentPool[_id].renterAddress == msg.sender,\n            \"Please check the ID, it seems that this account isn't exist or you are not the renter of this account\");\n        _;\n    }\n\n    /**\n     * description: \n     * param _id: \n     * param _rentTimes: //\n     */\n    function createRent(string _id, uint _rentTimes) public payable {\n        // \n        require(accountPool[_id].state == accountState.free);\n        // \n        rent memory newRent = rent({\n            renterAddress: msg.sender,\n            id: _id,\n            rentTimes: _rentTimes,\n            state: rentState.unconfirm,\n            beginTime: 0,\n            cost: accountPool[_id].price * _rentTimes * 1 ether\n        });\n        // , \n        require(msg.value == newRent.cost); \n        // \n        rentPool[_id] = newRent;\n        // \n        accountPool[_id].state = accountState.occupy;\n        // \n        emit notice(accountPool[_id].ownerAddress, \"Someone require to rent your account\\n\");\n    }\n\n    /**\n     * description: \n     * param _id\n     */\n    function confirmRent(string _id) public onlyOwner(_id) returns (string) {\n        // \n        require(rentPool[_id].state == rentState.unconfirm); \n\n        accountPool[_id].ownerAddress.transfer(rentPool[_id].cost);\n        rentPool[_id].state = rentState.confirm;\n        rentPool[_id].beginTime = now;\n        // \n        emit notice(rentPool[_id].renterAddress, \"Rent success, please change password by yourself\\n\");\n    }\n\n    /**\n     * description: \n     * param _id: \n     */\n    function refuseRent(string _id) public onlyOwner(_id) {\n        // \n        require(rentPool[_id].state == rentState.unconfirm); \n\n        // \n        rentPool[_id].state == rentState.end;\n        accountPool[_id].state = accountState.free;\n        // \n        rentPool[_id].renterAddress.transfer(rentPool[_id].cost);\n        // \n        emit notice(rentPool[_id].renterAddress, \"The owner refuse your rent request\\n\");\n    }\n\n    /**\n     * description: \n     * param _id: \n     * param _password: \n     */\n    function changePassword(string _id, string _password) public {\n        // \n        // \n        //          \n        require(validAccounts[_id] && \n            (accountPool[_id].ownerAddress == msg.sender && rentPool[_id].state == rentState.end) ||\n            (rentPool[_id].renterAddress == msg.sender && rentPool[_id].state == rentState.confirm));\n        accountPool[_id].password = _password; \n    }\n\n    /**\n     * description: \n     * param _id: \n     */\n    function getPassword(string _id) public view returns (string) {\n        // \n        // \n        //          \n        require(validAccounts[_id] && \n            (accountPool[_id].ownerAddress == msg.sender && rentPool[_id].state == rentState.end) ||\n            (rentPool[_id].renterAddress == msg.sender && rentPool[_id].state == rentState.confirm));\n        return accountPool[_id].password;\n    }\n\n    /**\n     * description: \n     * param _id: \n     */\n    function endRent(string _id) public onlyOwner(_id) {\n        // \n        require(rentPool[_id].state == rentState.unconfirm ||\n            now - rentPool[_id].beginTime >= rentPool[_id].rentTimes);\n\n        // \n        rentPool[_id].state == rentState.end;\n        // \n        accountPool[_id].state = accountState.free;\n        // \n        accountPool[_id].password = \"random\"; \n    }\n\n    /**\n     * description: \n     * param _id: \n     * param _password: \n     * param _price: \n     * param _description: \n     */\n    function createAccount(string _id, string _password, uint _price, string _accountType, string _description) public {\n        require(!validAccounts[_id]); // \n        // \n        account memory newAccount = account({\n            ownerAddress: msg.sender,\n            id: _id,\n            password: _password,\n            price: _price,\n            accountType: _accountType,\n            description: _description,\n            state: accountState.free\n        });\n        // \n        accountPool[_id] = newAccount;\n        // \n        validAccounts[_id] = true;\n    }\n\n    /**\n     * description: \n     * param _id: \n     */\n    function removeAccount(string _id) public onlyOwner(_id) {\n        require(accountPool[_id].state == accountState.free);\n        // \n        delete accountPool[_id];\n        // false\n        validAccounts[_id] = false;\n    }\n\n    /**\n     * description: \n     * param _id: \n     * return accountState: \n     */\n    function getAccountState(string _id) public view returns (accountState) {\n        require(validAccounts[_id]); // \n        // \n        return accountPool[_id].state;\n    }\n\n}",
  "sourcePath": "E:\\\\\\myDapp\\contracts\\AccountRent.sol",
  "compiler": {
    "name": "solc",
    "version": "0.4.24+commit.e67f0147.Emscripten.clang"
  },
  "schemaVersion": "2.0.1",
  "updatedAt": "2018-12-28T11:45:29.234Z"
}